:020000040800F2
:1000000030170020D5000008ED2600080124000864
:1000100000000000000000000000000000000000E0
:10002000000000000000000000000000DD290008C2
:1000300000000000000000008D270008DF290008F4
:10004000E7000008E7000008F5280008E7000008BE
:10005000E7000008FD02000807030008E7000008A9
:1000600000000000E7000008E7000008E7000008C3
:10007000E7000008E700000800000000C52B0008AA
:100080000000000000000000000000000000000070
:10009000652B000800000000992B0008E70000080D
:1000A00000000000E7000008000000000000000061
:1000B00045310008E70000080000000000000000D3
:1000C0000348854600F094F8004800478D33000847
:1000D000301700200448804704480047FEE7FEE749
:1000E000FEE7FEE7FEE7FEE7992A0008C1000008E8
:1000F00030B50B46014600202022012409E00D46C0
:10010000D5409D4205D31D469540491B2546954047
:1001100040191546521E002DF1DC30BDF0B51FB45C
:100120000646002082B005464024019100901BE065
:10013000019922460F46304600F049F8049A059B83
:10014000801A994110D310461946224600F02FF824
:10015000361A8F410197224601200021009F00F0AE
:1001600026F838184D4100902046641E0028DFDC38
:10017000019B00982946324607B0F0BD03460B4369
:100180009B0703D009E008C9121F08C0042AFAD24D
:1001900003E00B780370401C491C521EF9D27047D3
:1001A000421C0178401C0029FBD1801A704710B511
:1001B000202A04DB0146203A9140002010BD9140E6
:1001C00020239C1A0346E3401943904010BD10B50C
:1001D000202A04DB0846203AD040002110BD0B46FF
:1001E000D340D0402024A21A91400843194610BDA4
:1001F000064C0125064E05E0E36807CC2B430C3C7A
:1002000098471034B442F7D3FFF75EFFA8590008AF
:10021000C859000838B50446064805490068FFF784
:1002200067FF604300E0401E00900028FBD138BD0E
:1002300040420F004C000020F8B504460068816879
:100240008907890F012902D10168C90722D1816874
:10025000114A10261140012500290ED18168294339
:1002600081600120FFF7D6FF00F0B2FC07460CE0EA
:1002700000F0AEFCC01B0A2807D9A06D3043A06572
:10028000E06D2843E0650120F8BD20680068C043A8
:10029000C007EDD10020F8BD170000807EB5FF2219
:1002A0006B461A701A710E4B0022DC1DF9340EE0F9
:1002B0006E46855C3679754002956E465D5D367892
:1002C00075406E463571029D655D3570521C491E44
:1002D000EED2694608780979000208437EBD000025
:1002E000465700080020044902464300401CC0B2A3
:1002F000CA523D28F9D370479812002010B5022049
:1003000000F0AAFB10BD10B5082000F0A5FB10BD41
:1003100010B5084900234B6107494A684C15224330
:100320004A604A68082422434A60C009C001036049
:1003300010BD0000141300200020024010B5214A17
:1003400000209169CB05204904D548690223184350
:100350004861901593699B0505D54B69012423439A
:100360004B616302184393695B0505D54B6908240B
:1003700023434B61E301184393691B0505D54B6982
:10038000042423434B616302184393699B0405D5FE
:100390004B69102423434B616302184393699B0309
:1003A00004D54C6920231C434C6118439369DB033B
:1003B00005D54B69402423434B61A102084390615A
:1003C00010BD0000002002401413002070B5044648
:1003D00000F0FEFB0546184E0AE0601C08D0002C19
:1003E00004D000F0F5FB401BA04201D9032070BDF2
:1003F000B069C007F1D1B069800701D50220B061B2
:10040000B069C00511D4B06980050ED4B06940054B
:100410000BD4B069000508D4B069800405D4B06974
:10042000800302D4B069C00303D5FFF787FF012022
:1004300070BD002070BD000000200240F0B5294AC8
:1004400001028C18FF2289325043284A9DB00026B1
:1004500082181C961046FF3081304568224B006898
:1004600059782D7800781B782D06491900041B0255
:10047000C0180818009000206D460301D118D35809
:10048000CF681B783F781B06FB184F6889683F7858
:1004900009783F0409027918591883005B19401C38
:1004A000C0B259601828E8D300F0B6FA01201B90BA
:1004B0001CA919961A9419A800F04CFA002801D02A
:1004C00000F082FA0026B0002A580119022000F03C
:1004D00085FA761CF6B2192EF5D300F075FA1DB028
:1004E000F0BD00000078000854020020CC07002076
:1004F000F8B505460C464035297D01290DD001216E
:10050000297501688A68520709D5816D2022114337
:100510008165002028750120F8BD0220F8BD174B29
:100520006268D80547109A42154E8A6A236812D02D
:100530005B035B0B1A438A622168490305D5B168E6
:100540000143B1600A20FFF765FE2068800312D5E1
:10055000B06838430EE05B035B0B9A438A62216804
:10056000490302D5B1688143B1602068800302D598
:10057000B068B843B06000202875F8BD01100000D5
:10058000002701400068006C7047000070B504004F
:1005900006D0A06D254600264035002802D006E092
:1005A000012070BDE6652E75204600F0D1F8A06DE3
:1005B000C00603D420688168490705D5A06D1021C5
:1005C0000843A0652E75EBE7A16DFF220132914330
:1005D00002221143A16581685B4A8907890F0129BD
:1005E00002D10168C9072BD1032361689B07994297
:1005F00005D05B42994202D05B00994209D1016962
:1006000089008908016120680169636819430161F3
:100610000CE0016989008908016190680F21890453
:100620008843906090686168084390602068C16862
:1006300018239943C1602068C168A3681943C16049
:10064000906801214906884390609068218F49068F
:100650000843906020688168C90004D48168012241
:100660001207114381602068C168384A1140C16097
:100670002069E168022823D000200143206A226B10
:100680004003520010430143606B0143A0698003A3
:100690000143E069C00301432068C2681143C1609F
:1006A000A06A0146FF39C23905D0E16A08432168D2
:1006B000CA681043C860606A0121012802D00BE0BB
:1006C0000420DAE7206A002823D0A06D20221043FE
:1006D000A065E06D0843E065206C012820681FD00C
:1006E0000169C90703D0016949084900016120680F
:1006F0004169C908C900416120684169E26B114341
:100700004161E665A06D80088000401CA065002066
:1007100070BD2068C26801231B041A43C260DBE776
:100720000269FF239B009A43026120680269636C9F
:10073000E56C1A43A36C2B431A43026120680269DB
:100740000A430261D3E70000002701401902FEFFBF
:1007500000B500680A4985B088420FD10948416B4D
:1007600042151143416310200090032001900020A6
:10077000029005206946000700F07AF905B000BD37
:100780000024014000100240F8B5044640692746A5
:1007900040370D4608280BD02068C068C00709D034
:1007A000A06D20210843A065002038750120F8BD08
:1007B000082600E00C2600F00BFA009011E0681CFF
:1007C0000FD0002D05D000F003FA0099401AA8427E
:1007D00007D9A06D04210843A065002038750320C7
:1007E000F8BD206800683042E9D0A06D01214902BF
:1007F0000843A0652068C1680C220905890F0029FB
:100800001AD1216A002917D10168090714D5816816
:1008100001234907002908DB416891434160A06D2D
:10082000190288431843A06506E0A06D2021084303
:10083000A065E06D1843E065A069002801D120683B
:1008400002600020F8BD000070B504462168002059
:100850008968490721D425464035297D01291CD0C6
:1008600001212975E169012904D02046FFF7E4FC44
:10087000002811D1A16D0A4A1140FF220132114313
:10088000A1650021E165297522681C21116021689C
:100890008A6804231A438A6070BD022070BD00007C
:1008A000FEF1FFFF70B50024024620325179022983
:1008B00003D00421C16301243CE001680B680E25CC
:1008C000AB430B6001680B685B085B000B601A4B65
:1008D0000168994201D1012121E0174B143399425B
:1008E00001D110211BE0144B2833994201D1891505
:1008F00015E0114B3C33994201D189140FE00E4BA6
:100900005033994202D10121090408E00A4B6433B3
:10091000994202D10121090501E001210906064B96
:10092000083B59600121517100211171816B00292F
:1009300000D08847204670BD0800024031B500F065
:1009400047F9044600F044F90099001B8842F9D3A6
:1009500038BD0000F8B5194F0546387C0E46012811
:1009600007D0012038741648FFF730FD002802D068
:1009700020E00220F8BD0021C94331606C6813E01B
:100980002046FFF7C5FC0E48FFF720FD0D494A68D9
:1009900008239A434A604A684B159A434A600028E4
:1009A00001D0346006E08034A9686A68C9018918FA
:1009B000A142E5D800213974F8BD000014130020CD
:1009C00050C3000000200240034841680222114346
:1009D000416000207047000000200240F8B50C4C38
:1009E0001646207C0F46012808D0012020740948B3
:1009F000FFF7ECFC0025002802D006E00220F8BD3D
:100A000065613E600348FFF7E1FC2574F8BD000016
:100A10001413002050C300000948416889070CD511
:100A20004168C90703D00749C1600749C160074948
:100A300001610749016100207047012070470000F3
:100A400000200240EFCDAB8905040302BFAE9D8CB0
:100A5000161514137047000010B504494A69024284
:100A600002D04861FFF7F6FF10BD0000000401400E
:100A7000F0B500228DE001249440A44623407DD0AF
:100A80004C68022C01D0122C0CD1D408A4002718D9
:100A90003D6A5407E40E0F26A640B5430E69A640F2
:100AA0002E433E624C68012C05D0022C03D0112C41
:100AB00001D0122C11D1856854000326A640B543FD
:100AC000CE68A6402E43866044686546AC430D79E7
:100AD000ED06ED0F9540254345600768540003255A
:100AE000A5400E79AF43B607B60FA6403E43066059
:100AF000C668AE438D68A5403543C5604C68E400C8
:100B000046D5274C666B01252E4366639508254C18
:100B1000AD002F19BD689407240F0F26A640B543DA
:100B200005263607B04201D100260FE01E4EB04226
:100B300001D101260AE01D4EB04201D1022605E096
:100B40001B4EB04201D1052600E00626A6402E43EA
:100B5000BE60184D2C684E689C43F60300D51C43BC
:100B60002C606C684E689C43B60300D51C436C60D7
:100B7000AC684E689C43F60202D500E008E01C43D6
:100B8000AC60EC684E689C43B60200D51C43EC6038
:100B9000521C0B681C46D44000D06CE7F0BD00002E
:100BA0000010024000000140000400500008005006
:100BB000001C0050000401400069084000D00120E2
:100BC0007047002A01D08161704781627047000040
:100BD00001480068704700004800002070B504001C
:100BE0000FD021681348086021681348086003CCBF
:100BF00041602068083C21688860FFF7E9FF0546EE
:100C000008E0012070BDFFF7E3FF401B302801D949
:100C1000032070BD2068C0680028F4D120680269F4
:100C2000E1688A4201D0016101E0044901600020CD
:100C300070BD0000CCCC000055550000AAAA0000F1
:100C4000006802490160002070470000AAAA000065
:100C500002480168491C01607047000048000020FC
:100C600010B506480168402211430160002000F0E1
:100C700007F800F019F8002010BD00000020024025
:100C800010B5044607487D21C9000068FFF730FA17
:100C900001F09CF800222146501E00F02BF80020A5
:100CA00010BD00004C00002010B50C48416B012223
:100CB00011434163816B0204114381630022114699
:100CC000501F00F017F800221146901E00F012F895
:100CD00000221146501E00F00DF810BD0010024019
:100CE000C106C90E01208840014908607047000014
:100CF00000E100E010B501F027FD10BD02480168D9
:100D000002151143016070470070004002480168FD
:100D100042151143016070470070004002480168AD
:100D20008215114301607047007000400A4B1A6839
:100D30009208920002431A600848026904231A4389
:100D40000261012906D040BF20BF20BF016999433D
:100D50000161704730BFF9E70070004000ED00E02E
:100D6000F8B53E4D014601230020DB033A4C3B4AD7
:100D70004035022932D0042949D008295AD02029E7
:100D80000AD12C69296903252D0429405E00B1424E
:100D900003D1A60501D51846F8BD01235B0499428D
:100DA00003D1A30701D52E48F8BDA942FCD1116893
:100DB0008903F9D5106803210905084001210905B7
:100DC000401A09D0401A05D0884201D12548F8BD03
:100DD0002548F8BD2548F8BD2548F8BDE9680C262A
:100DE000314009D008290AD004290DD00C29F4D1AA
:100DF00029698905CFD4F8BD00F0A6F9F8BD1168BE
:100E00004907FBD52046F8BD00F0BEF9F8BDE968FA
:100E10000326B6023140EFD00127FF02B94202D1CA
:100E200012685207EED4012292029142ECD0B142F4
:100E3000DED0F8BDE96803231B031940DCD0012391
:100E40005B03994202D112685207DBD401221203DC
:100E50009142D9D0F8BD00000024F40000100240F7
:100E60008890000020A1070000093D0040420F00CB
:100E700080841E00F8B504460078534D80067AD56C
:100E8000514800264038806BC00006D44E48403898
:100E9000816B02041143816301264C480168C90536
:100EA00010D40168821511430160FFF791FE0746D7
:100EB00004E0FFF78DFEC01B64283AD84348006861
:100EC000C005F6D54048403800680321090562682E
:100ED0000840114081420AD09003800F032806D1B8
:100EE000394840380068800301D50120F8BD2869E1
:100EF00003210904084021D00A4082421ED02078F4
:100F000080061BD528692A6988430121C9040A4340
:100F10002A612A698A432A612861C0050ED5FFF734
:100F200057FE074607E0FFF753FEC11B28488142E2
:100F300001D90320F8BD28698005F4D560688103D4
:100F4000890F032908D1204B403B19680322120561
:100F5000914310400143196028690322616812041B
:100F6000114008432861002E05D017484038826B95
:100F700001048A4382632078800705D5E8680C2144
:100F80008843A1680843E8602078400706D5E868F0
:100F9000032189028843E1680843E860207800075C
:100FA00006D5E86803210903884321690843E860FE
:100FB0002078000606D5E868032189048843616922
:100FC0000843E8600020F8BD401002400070004077
:100FD00088130000F8B5044653480E460068C00761
:100FE000C00FB0420AD25048016849084900314355
:100FF00001600068C007C00FB0426FD120784B4F2E
:10100000800705D5F868F0218843A1680843F86097
:101010002078C00752D06068022817D0032818D063
:101020003968012818D08905002957DAF968890834
:1010300089000143F960FFF7CBFD0546606802288F
:1010400012D003281CD0012826D033E03968890348
:10105000EAE739688901E7E74907E5E7FFF7B8FDFF
:10106000411B3348814223D8F8680007800F0228CB
:10107000F4D123E0FFF7ACFD411B2D48814217D886
:10108000F8680007800F0328F4D117E0FFF7A0FDF0
:10109000411B274881420BD8F8680007800F0128C0
:1010A000F4D10BE0FFF794FD411B2148814201D9A7
:1010B0000320F8BDF8680007800FF3D11A480168D3
:1010C000C907C90FB1420BD901684908490031432A
:1010D00001600068C007C00FB04201D00120F8BD18
:1010E0002078400706D5F868072109028843E1689F
:1010F0000843F8602078000707D5F8680721C9027F
:1011000088432169C9000843F86000F03DF8F96898
:10111000084A0906090F515CC840074908600020C9
:10112000FFF7AEFD0020F8BD002002400010024095
:1011300088130000845900084C0000200148006812
:10114000704700004C000020044805490068C96849
:10115000044A4905490F515CC84070474C000020C3
:10116000001002409D590008044805490068C968FC
:10117000044A8904490F515CC84070474C00002064
:10118000001002409D59000810B5194AD1680C237F
:101190000846184004280BD0082810D00C2810D07E
:1011A00050680004410F0120C003491C884010BD55
:1011B0001068C00601D50F4810BD0F4810BD0F487C
:1011C00010BD88020E4B000F185C0902D368890F0E
:1011D000491CDB0301D5094A05E01268D20601D596
:1011E000044A00E0044A5043FEF782FF10BD0000AD
:1011F0000010024000093D000024F40000127A00B3
:1012000094590008F8B504460078F24EC00749D05A
:10121000F0680007800F022807D0F0680007800FF1
:10122000032809D1F068C00306D53068800339D59A
:101230006068002872D035E00121606809048842A6
:1012400002D13068084310E0052301221B049204F8
:101250009842306802D110433060F2E78843306032
:101260003068084000903068904330606068002823
:101270000CD0FFF7ADFC054604E0FFF7A9FC401BCE
:1012800064287DD830688003F7D50BE0FFF7A0FC19
:10129000054604E0FFF79CFC401B6428F1D8306849
:1012A0008003F7D42078800741D5F0681F27000716
:1012B000800F3F02012807D0F0680007800F032845
:1012C00009D1F068C00306D43068400717D5E0683C
:1012D000012823D113E0E068002817D031680922E3
:1012E000914301433160FFF773FC054604E0FFF7CB
:1012F0006FFC401B0228C4D830684007F7D57068DF
:101300002169B84309020843706010E03068400862
:1013100040003060FFF75CFC054605E099E0FFF710
:1013200057FC401B0228ACD830684007F7D420781F
:10133000C00676D5F068A84F0007800F0BD0A069D3
:1013400000285DD03068FF21013108433060FFF78D
:101350003FFC054644E03068800502D5A0690028BE
:1013600077D0206A71683940884212D901F05AFA60
:101370000028AED17068216AB8430843706000E06D
:10138000BDE07068217F0002000A09060843706012
:101390000FE07168B943014371607068217F0002FA
:1013A000000A090608437060206A01F03BFA002831
:1013B0008FD1206A410B0120C003491C8840F1688D
:1013C00009060A0F8549895CC840854908600020E4
:1013D000FFF756FC25E0FFF7FBFB401B02288AD8ED
:1013E00030688005F7D57068216AB843084370609B
:1013F0007068217F0002000A09060843706010E04F
:101400003168FF20013081433160FFF7E1FB054681
:1014100004E0FFF7DDFB401B022870D83068800530
:10142000F7D420786F4D000723D56069002828691C
:1014300010D0012108432861FFF7CAFB074604E0EA
:10144000FFF7C6FBC01B022859D828698007F7D5CB
:101450000FE0BCE0400840002861FFF7B9FB0746F9
:1014600004E0FFF7B5FBC01B022848D828698007B5
:10147000F7D42078400762D500200090B06BC00000
:1014800006D4B06B012109070843B0630120009026
:1014900055480168C90510D40168821511430160DF
:1014A000FFF796FB074604E0FFF792FBC01B64289A
:1014B00025D84D480068C005F6D5FF20A168013049
:1014C000814203D129690143296111E0012292027D
:1014D000002907D005231B02994203D12969114332
:1014E0002961EFE7296981432961286990432861CF
:1014F000A06800280ED0FFF76BFB074606E05FE010
:10150000FFF766FBC11B3948814259D8286980051D
:10151000F6D50CE0FFF75CFB074605E0FFF758FB4C
:10152000C11B324881424BD828698005F6D4009807
:10153000002804D0B16B012000078143B163606AC9
:10154000002842D0F1680907890F03293FD00127FD
:101550003F060228306805D0B8433060FFF738FBFB
:1015600004462FE0B8433060FFF732FB054604E045
:10157000FFF72EFB401B022822D830688001F7D4E9
:10158000E16AA06AF2680843216BFD231B049A43B9
:1015900011430843F060306838433060FFF718FBB0
:1015A000044604E0FFF714FB001B022808D830684B
:1015B0008001F7D509E0FFF70BFB001B022801D9DA
:1015C0000320F8BD30688001F5D40020F8BD01206B
:1015D000F8BD00000010024000E00000845900083F
:1015E0004C000020401002400070004088130000B2
:1015F000FFB581B016460F46040005D0254660357C
:10160000687A002803D007E0012005B0F0BD002073
:101610002872204600F012FE2420687220680168BB
:10162000490849000160606A002802D0204601F0A4
:101630003CFB204601F026FC0128E6D020688168AA
:101640000122920311438160206881685200914316
:1016500039438160049970050904014320680268D8
:10166000064B1A400A4302602068016801221143B8
:101670000160204601F07EFBC7E70000FFFF00FC91
:1016800000688900503008180068704700688900B9
:101690005030081802607047F8B5054604462035FA
:1016A0002878012819D0012028700220687021684C
:1016B000CA2048622168532048622068816801225C
:1016C0009202914381602068816812019143816098
:1016D000FFF77EFA064600270FE00220F8BDFFF76D
:1016E00077FA811B7D20C000814206D92168FF2046
:1016F0004862032068702F70F8BD2068C0684007FA
:10170000EDD52168FF204862012068702F7000200D
:10171000F8BD0000F7B505460446203528780128B5
:1017200013D001202870022068702168CA20486206
:1017300021685320486220688068002740050028FF
:1017400010DAFFF745FA064608E00220FEBDFFF773
:101750003FFA811B7D20C00081421BD82068C068F1
:101760004007F4D420688268012189028A4382609C
:101770002068C16880221140204A8918C160FFF7A3
:1017800027FA06460DE0FFF723FA811B7D20C000F3
:10179000814206D92168FF204862032068702F70BB
:1017A000FEBD2068C0684007EDD5216801984861FA
:1017B00020688168C908C900816020688168029A30
:1017C000114381600E480168012212051143016036
:1017D00081681143816020688168921111438160A2
:1017E000206881681211114381602168FF204862DE
:1017F000012068702F700020FEBD00007FFBFFFFFE
:10180000000401400248016804221143016070474E
:101810000070004010B504460068C068400509D556
:101820002046FFF7EFFF2068C16880221140054A7B
:101830008918C16001200449000548610120203455
:10184000607010BD7FFBFFFF0004014010B5006811
:101850000B464068C021C94301400002000ECC0481
:10186000D870E40E5C708C06A40E0904490F9C70BD
:101870001970002A0AD101F00DF8D870587801F0DB
:1018800009F85870987801F005F89870002010BD9C
:1018900030B50B460168896A5960016809694904D5
:1018A000490C9960006804680F482146014088028D
:1018B0004D04800E18706D0E49065D70490E9970CA
:1018C0006102490E40242140D970002A0AD100F05B
:1018D000E1FF1870587800F0DDFF5870987800F03C
:1018E000D9FF9870002030BD7F7F7F0070B5040065
:1018F00005D0254620356878002802D006E0012072
:1019000070BD00202870204600F042F80220687068
:101910002168CA204862216853204862204600F0AE
:10192000CCFFFF210028206803D0416204206870AA
:10193000E5E78268154B1A40826020688268636818
:10194000A6691A43236933431A4382602268E06818
:1019500010612068026923891B041A430261206810
:10196000C26880239A43C2602068C26C92089200C9
:10197000C264E269606902432068C36C1A43C264AE
:101980002068416201206870002070BDBFFF8FFF9A
:1019900000680549884205D1044801690122920482
:1019A00011430161704700000028004040100240D0
:1019B000F8B505460446203528780B46012822D084
:1019C00001202870022068705878002A1DD000F08D
:1019D00061FF987800F05EFFD8789E780004064397
:1019E0005878197800024903084306432168CA2041
:1019F0004862216853204862204600F05EFF0027BD
:101A000000282AD117E00220F8BDC10603D5EF2136
:101A100008400A305870D87800F044FF060458781F
:101A200000F040FF00020643987800F03BFF0643B9
:101A300018784003D9E711480640206846602068BE
:101A4000C16880229143C1602068806880060CD400
:101A5000204600F08DF8002807D02168FF2048625A
:101A6000042068702F700120F8BD2168FF204862B3
:101A7000012068702F700020F8BD00003FFFFF00BC
:101A8000F8B506460446203630780D4601280ED0BB
:101A90000120307002207070206800278068002AC2
:101AA00007D040061AD5287800F0F4FE17E002208F
:101AB000F8BD400600D4EF70287800F0F3FE020471
:101AC000687800F0EFFE00020243A87800F0EAFE1A
:101AD0000243E8780004024300920BE0EF7029789B
:101AE000A878090408436978EA78090212041143C6
:101AF000084300902168CA20486221685320486248
:101B0000204600F0DAFE00281FD11849009808404E
:101B100021680860206881680122920491438160F5
:101B2000E968286901432068826811438160206860
:101B3000C16880229143C1602068806880060CD40F
:101B4000204600F015F8002807D02168FF204862E1
:101B50000420707037700120F8BD2168FF204862B2
:101B60000120707037700020F8BD00007F7F7F007B
:101B700070B505460068C168A0229143C160FFF7B7
:101B800027F87D260446F60006E0FFF721F8001B43
:101B9000B04201D9032070BD2868C0688006F4D522
:101BA000002070BD70B5040006D025464035687C25
:101BB0000026002802D005E0012070BD2E742046CA
:101BC00000F02EF8022068742068016840229143DA
:101BD0000160A168606822690843E1681143084315
:101BE000616901220843A169520211400843E16979
:101BF0000843216A0843A16A084321680860A06974
:101C00000421000C0840616A08432168486021688B
:101C1000E06A0861666501206874002070BD0000FC
:101C200000B500680C4985B0884212D10B48416B61
:101C3000821411434163E0200090022001900021B2
:101C40000320039002910491052069460007FEF7E6
:101C50000FFF05B000BD0000003001400010024041
:101C6000FFB5054604464035687C81B0012872D135
:101C700000293CD0002A3AD0287C01286BD00120D2
:101C8000287412206874002767652163A286E286A3
:101C9000E764A764A763A787E7870126A06A76039E
:101CA000B04207D120680168B14301602068016833
:101CB000314301600121A068C903884205D1206831
:101CC00001680122920311430160206801684906FE
:101CD00003D40168402211430160E0680028606875
:101CE00008D0002820D0E08E01281DD026E0012059
:101CF00005B0F0BD002802D0E08E012808D1206B8D
:101D0000411C216321680078C860E08E401EE08697
:101D1000E08E002820D0002202212046049B00F003
:101D2000F1FD002815D1EAE7206B21680088C86022
:101D3000206B801C2063E08E401EE086E08E002831
:101D40000AD0002202212046049B00F0DBFD00287F
:101D5000EAD00320CCE729E0A06AB04205D1206890
:101D60000168012212031143016000220221204672
:101D7000049B00F0C7FD2026002807D10122802106
:101D80002046049B00F0BEFD002803D0606D304368
:101D90006065DEE7A068002803D12068C16880681C
:101DA0000090012068742F740020A1E702209FE7B3
:101DB000042204490428086902D09043086170474E
:101DC0001043FBE700E000E070470000094910B550
:101DD000401E884201D9012010BD074C60610321DB
:101DE000081F00F0B1FC0020A06107202061002046
:101DF00010BD0000FFFFFF0000E000E010B5FFF79E
:101E0000E3FF10BD70B502462032137D012B1BD0BD
:101E1000012414750223537503685D687026B54369
:101E20005D6003685D680E6835435D6003689D68AA
:101E30008026B5439D600068836849680B438360D2
:101E400054750020107570BD022070BD70B504007F
:101E500005D025462035687D002802D006E0012007
:101E600070BD00202875204600F00AF80220687531
:101E7000211D206800F0BAFE01206875002070BDA9
:101E8000006801218907884204D10348816B01223F
:101E90001143816370470000001002400168CA6866
:101EA00001231A43CA6000680168194301600020D9
:101EB000704700000168CA6852085200CA60006892
:101EC000016A044A114203D10168490849000160CE
:101ED0000020704711110000F8B505460446203572
:101EE000287D012817D001272F75022068752068EA
:101EF00082687726FF23B2431B029A4382600868F8
:101F0000502836D00EDC202856D006DC00284DD0D4
:101F100010283FD14DE00220F8BD30284FD0402896
:101F200038D13BE060282CD0702816D00122120353
:101F3000801A0DD090422DD1CB684A6889682068FC
:101F400000F07CFE206881680122920311430EE0BC
:101F500020688168C908C90009E0CB684A688968B7
:101F6000206800F06BFE20688168B14331438160D6
:101F700010E0CA684968206800F073FE50212068AC
:101F800006E0CA684968206800F07CFE602120688D
:101F900000F05FFE6F7500202875F8BDCA684968BB
:101FA000206800F05EFE40212068F1E700212068F3
:101FB000EEE710212068EBE720212068E8E73021D8
:101FC0002068E5E7704770B50446006801690025A0
:101FD000C9438907002915DBC168C943890711D4A2
:101FE000E91E016101202075206880698007204674
:101FF00002D0FFF7E7FF04E000F078F8204600F099
:1020000076F8257520680169C943490717D4C16866
:10201000C943490713D40421C94301610220207533
:10202000206880698005800F204602D0FFF7CAFF34
:1020300004E000F05BF8204600F059F825752068B0
:102040000169C943090716D4C168C943090712D4F5
:102050000821C9430161042020752068C0698007F8
:10206000204602D0FFF7AEFF04E000F03FF8204624
:1020700000F03DF8257520680169C943C90617D4E9
:10208000C168C943C90613D41021C943016108209E
:1020900020752068C0698005800F204602D0FFF7B8
:1020A00091FF04E000F022F8204600F020F82575AA
:1020B00020680169C943C90708D1C168C943C90774
:1020C00004D1891E0161204600F012F820680169E0
:1020D000C943490609D4C168C943490605D440210A
:1020E000C9430161204600F004F870BD7047704795
:1020F0007047704770477047F8B502680446D0696A
:10210000116805072D0F07D1830605D58B0603D56A
:10211000204600F078FEF8BD93682026002D65D09B
:10212000DD07ED0FFF2721370F402F435ED0C70794
:1021300006D0CF0504D501271762E26E3A43E26666
:10214000820708D5DA0706D0276802223A62E26ED3
:1021500004273A43E266420708D5DA0706D0236827
:1021600004221A62E26E02231A43E266020709D5CC
:102170000A4632402A4305D0236808221A62E36ED9
:102180001343E366E26E002AC5D0800604D58806B4
:1021900002D5204600F037FEE06E000703D4206829
:1021A000806840061CD5204600F01EFE206881682D
:1021B000490611D5826840218A438260606E0028FA
:1021C0000AD01D498163606EFEF76CFB0028A2D027
:1021D000606E816B8847F8BD2046FFF78CFFF8BD25
:1021E0002046FFF788FF0020E066F8BD2546C702BD
:1021F0006035002F0ADA5B0208D501200005106265
:102200006E72AE722046FFF775FFF8BD030605D566
:102210000B0603D5204600F031FFF8BD4006FCD583
:102220004806FAD51368204640218B4313606E722E
:1022300000F0E5F8F8BD0000D52D000800B50068F5
:10224000114985B088421CD11048816B012252048B
:10225000114381630E4800900220019000200290FB
:102260000320039004200490052069460007FEF730
:10227000FFFB002211461C20FEF73CFD1C20FEF750
:102280002FFD05B000BD00000044004000100240DA
:102290000206000070B5034660339C7A202C44D1BE
:1022A00000290BD0002A09D0012584682D03AC42F7
:1022B00006D10669002E03D1CE0701D0012070BDE2
:1022C0001E7A012E31D001261E7241650146403131
:1022D0000A834A83FF22AC4204D10469002C12D144
:1022E000134A10E07F25002C08D0012212079442E7
:1022F0000AD10269002A04D03F2204E00469002CBC
:1023000001D08D8300E08A830021C16622229A7267
:10231000197201688A6832438A6000680168FF2286
:10232000213211430160002070BD022070BD000009
:10233000FF0100007047FFB5074605466037787A11
:1023400083B00C46202858D1002C0CD005980028CA
:1023500009D00120A9680003814207D1286900281B
:1023600004D1E00702D0012007B0F0BD387A01287F
:1023700043D0012038720020E86621207872FEF7F1
:1023800027FC01902E4640360598308205987082D1
:1023900018E0708A401E708206980090002280210A
:1023A0002846019B00F09DFE002818D10120A96855
:1023B0000003814202D12869002812D029682078C0
:1023C0008862641C708A0028E3D10698009000227D
:1023D00040212846019B00F084FE002808D00320FD
:1023E000C2E720882968C005C00D8862A41CE9E7FF
:1023F0002020787200203872B6E70220B4E77047D8
:10240000FEE7000010783C21484319783C2341182E
:102410000548027840785A431018814202D9081AB8
:1024200080B2704700207047841200201CB5174806
:1024300015490160032292074260002101640423D0
:102440001822C363826001220261C160416202629C
:10245000C162016341638161FF228163C2324361D2
:102460008262C161FEF792F8002800D0FEE70848BA
:1024700000900014019069460448FEF739F80028DE
:1024800000D0FEE71CBD00000024014050000020E9
:1024900010000010F0B51D4887B0C26A04210A433D
:1024A000C262C26A0A400592C16A01263143C16212
:1024B000C16A31400591C16A02252943C162C06ADF
:1024C0000327284005907F03052000223946000796
:1024D000FEF777FB08200024009005200194694650
:1024E00002940007FEF7C4FA009569460848029571
:1024F0000194FEF7BDFA0520029469460007009793
:1025000001960394FEF7B4FA07B0F0BD0010024044
:1025100000040050F0B5214C87B01F482060002116
:102520002046FFF7ADF81E4FB84232D01D480126B5
:10253000867200257F206560A06025616561A561C8
:10254000FF20E561E0602046FFF7D0F9002800D0C9
:10255000FEE7684605704570857003950022694660
:102560000E480495FFF78CFA002800D0FEE7684675
:10257000067546758675C575002205A90748FFF7DB
:1025800017FA002800D0FEE73A4600210348FFF77B
:102590007DF807B0F0BD000000280040B00000202A
:1025A000F23200000000002010B50E480C49016016
:1025B000FF210531416000218160C160016101227C
:1025C000520241618261C161802241620262816284
:1025D0000721C162FFF7E6FA002800D0FEE710BD30
:1025E00000300140D400002070B505461548416B0D
:1025F0002022114341631549134C7D2000220C60B9
:1026000080018A60486002200A61C8600846FFF7BE
:102610001DFC002800D0FEE70D48A0620D48405D7B
:10262000E062E06801210843E06020680821084377
:1026300020600021162000F065F8162000F058F800
:1026400070BD00000010024000140140E4010020B1
:102650003F1F00006C59000810B50121124886B0D8
:102660008907016000241149846041607D21C9000F
:102670000461C160FFF7EAFB002800D0FEE70120FB
:102680000003009069460848FFF726FC002800D0A8
:10269000FEE7049404A904480594FFF7B3FB00285F
:1026A00000D0FEE706B010BD2C0100203F1F000047
:1026B00010B50D480B490160E1214902416000213C
:1026C0008160C16001618161C1610C22016242616E
:1026D0000B4641620A46FEF78BFF002800D0FEE75A
:1026E00010BD00000044004064010020704700005D
:1026F000C106C90E012088400149086070470000EA
:1027000000E100E08307FF22DB0E9A408907090EF3
:10271000994000280BDA0007000F083883080848A2
:102720009B001818C36993430B43C3617047830828
:1027300004489B001818036893430B4303607047D9
:1027400000ED00E000E400E08307FF22DB0E9A408A
:102750008907090E994000280BDA0007000F083896
:10276000830808489B001818C36993430B43C3614F
:102770007047830804489B001818036893430B4371
:102780000360704700ED00E000E400E07047002ABD
:1027900005D0401CC0B2884200D3002070470028FA
:1027A00000D10846401EC0B2704710B5017800291C
:1027B00008D000210170084600F00CF8C02000F09D
:1027C00055FD10BD01210170084600F003F8D0202E
:1027D000F5E70000F8B54600B82730463843C0B2E8
:1027E00000F044FD002000F041FD0D4D002460008C
:1027F000285C00F040FD641C3D2CF8DB761C3E4359
:10280000F0B200F033FD002000F030FD0024600045
:10281000285A000A00F02FFD641C3D2CF7DBF8BDA0
:102820009812002070B5174B0021DA681206120FBB
:1028300018D19A6B154CD500134A02D51268224064
:1028400009E09E6B01252D072E439E6312689E6B47
:102850002240AE439E63A24204D1032292039042DF
:1028600000D101210A480268520852000A4302605E
:102870000068C007C00F884201D0012070BD002051
:1028800070BD000000100240007000400018000001
:102890000020024001090A2200075143000F40189E
:1028A000C0B27047002102E00A38C0B2491C0A28B1
:1028B000FAD20907090E0843704770B5054600684B
:1028C000C168490613D40021C943C160FEF780F9ED
:1028D0007D260446F60006E0FEF77AF9001BB042BA
:1028E00001D9032070BD2868C0684006F4D50020D7
:1028F00070BD000010B50248FEF78CFF10BD00004F
:10290000B0000020FFB581B01D4616460446FEF714
:102910005FF93146264640360746002918D03BE08D
:10292000681C15D0002D04D0FEF752F9C01BA84238
:102930000ED920684268E0218A4342601CE020688A
:1029400002688A430260206802680A4302601CE051
:102950002068816802988843E2D122E0681C1BD07D
:10296000002D04D0FEF734F9C01BA84214D920680A
:102970004168E022914341602068026840218A4317
:102980000260A06AC9018842D9D001207074002079
:102990003074032005B0F0BD206881680298884338
:1029A000DCD00020F6E7000031B532230122694671
:1029B0000948FFF755F90122052554032D07214643
:1029C0002846FEF7FEF80A2000F0C2FC002221464D
:1029D0002846FEF7F6F838BDD4000020704710B541
:1029E000FEF736F9FFF70AFA10BD000010B52849C6
:1029F00098B008680324E402A043CA148018086051
:102A0000FEF78CF923490869A0430861062000906D
:102A1000881502900920039010200490022009904C
:102A200040040B90000100240C900A946846FEF7C5
:102A3000E9FB002800D0FEE70F200D9003200E9048
:102A40000F941094002111940DA8FEF7C3FA0028EA
:102A500000D0FEE72220129001200004139014946D
:102A600012A8FEF707FA002800D0FEE7FEF766FB83
:102A70007D21C900FDF73CFBFFF7A8F90420FFF713
:102A800097F900221146501EFEF734F918B010BD18
:102A90000070004040100240104801688215114348
:102AA0000160C1680E4A1140C16001680D4A1140C1
:102AB000016081684908490081600168012292042F
:102AC00091430160C168FD2212049143C16000215D
:102AD00001610549C0038860704700000010024092
:102AE0000C40FF88F6FFF6FE00ED00E030B51A4C12
:102AF00087B0A06B21040843A063FEF707F9FEF737
:102B0000FDF8E0680121C9038843E060E06A012123
:102B10000843E062E06A08400590E06A0225284325
:102B2000E062E06A6946284005900C480090032066
:102B300001900020029005200007FDF799FF6946EB
:102B40000748FDF795FFE06A40084000E062E06A50
:102B5000A843E06207B030BD00100240FFFF000054
:102B6000000400500949086940084000086108480D
:102B7000C27F002A06D00022C2770868054A1040AA
:102B8000086070470121017670470000000801408D
:102B900000000020FEFF000010B506480168064A4C
:102BA000114001600548FFF70EFA054901208870C1
:102BB00010BD000000140140FEFF0000E4010020F1
:102BC00000000020012080070169490849000161D7
:102BD00004490A6804231A430A600168024A114042
:102BE0000160704700700040FEFF0000F0B5026811
:102BF0000124A4070F4D104EA04203D0A84201D0DB
:102C0000B04204D1134670274A68BB431A43A0421E
:102C100003D0A84201D0B04204D103231B029A433F
:102C2000CB681A4302608A68C26209688162012126
:102C30004161F0BD000801400014014030B58468D6
:102C4000FF252D021B021343AC430B432343836038
:102C500030BD826870239A430A4307210A43826089
:102C6000704730B5036A046A6408640004628469CA
:102C7000F025AC43120122430A24A3430B43826193
:102C8000036230BD30B5036A1024A3430362836935
:102C9000046A0F252D031203AB431A43A0239C4360
:102CA000090121438261016230BD10B5818CC907E1
:102CB00007D001684A6801235B049A43836A1A4378
:102CC0004A60818C890707D501684A6801231B0483
:102CD0009A43C36A1A434A60818C490707D5016841
:102CE0004A6801239B049A43036B1A434A60818C10
:102CF000090707D501684A680123DB039A43436B40
:102D00001A434A60818CC90607D501688A68012385
:102D10001B039A43836B1A438A60818C890607D50B
:102D200001688A6801235B039A43C36B1A438A6074
:102D3000818C490612D501684B6801221205046C8A
:102D4000934323434B60016C914207D101684A6869
:102D500003235B059A43436C1A434A60818C09063E
:102D600007D501684A680123DB04806C9A4302435B
:102D70004A6010BDF8B500250446C566FDF728FF7A
:102D8000074620680068124E000709D501213B461E
:102D9000002249052046009600F0A3F900280DD135
:102DA0002068006840070BD501213B4600228905B9
:102DB0002046009600F095F9002801D00320F8BDC8
:102DC000202060346072A07225720020F8BD0000DF
:102DD000FFFFFF0110B5806A0022014640314A839F
:102DE0004A82FFF788F910BD01680A68FF23213382
:102DF0009A430A6001688A68520852008A6020215A
:102E000060308172704770B50246403201466031D1
:102E1000938B8D7A0C460168222D05D08869082293
:102E200010438861022070BD496A01268568360317
:102E300089B2B54202D10569002D0BD01940436D0E
:102E40005D1C45651970518B491E0904090C51839D
:102E500007D015E0456D19402980416D891C4165F9
:102E6000F1E701680A68FF2321339A430A60016889
:102E70008A68520852008A602021A172FFF75AFA2C
:102E8000002070BDFEB504462269A168E3691143C4
:102E900062691027002600681A431143026835460C
:102EA0006D4B1A400A4302602068416803221203F6
:102EB0009143E26811434160684A2168A0699142E8
:102EC00001D0226A10438A680B231B029A430243F3
:102ED0008A60634A2068634990420AD1C8680C211D
:102EE00008402BD004282DD0082829D00C2810D138
:102EF0000EE05A4A90420CD1C8680321890208406A
:102F00001CD01115401A1DD0401A19D0884200D18A
:102F100008270220FDF724FF0190504B51492268F9
:102F20004039D81300929A4235D1002F0CD0022F8D
:102F30000DD0042F12D0082F1CD113E00027E8E792
:102F40000227E6E70427E4E7FEF7FEF808E0086852
:102F5000C00601D5444805E0444803E0FEF714F9F3
:102F6000002873D0626851005118814202D81103C1
:102F7000814201D2012569E0010E060250080023BA
:102F800030185941FDF7CAF803210902384A411A9D
:102F9000914259D9EEE7E26982422DD13B0000F01F
:102FA000A3F90906080B24192424241F24000198DE
:102FB00012E0FEF7D9F80FE008686168C00602D594
:102FC00048082C4A01E02C4A48088018FDF790F880
:102FD00086B20BE0FEF7D8F8616840004A08F4E7D3
:102FE0006168012248081204EFE70125310909014F
:102FF0003007400F084327E03B0000F075F9090750
:103000000A0D061D060606290600B3E7FEF79CF822
:1030100014E0FEF7A9F811E008686168C00602D55F
:103020004A08114801E011484A081018FDF760F8F5
:1030300081B20098C16009E0FEF7A6F861684A080D
:103040008018FDF755F880B22168C8602846FEBD9B
:1030500061684A08E9E70000F369FFEF00480040B3
:10306000004400404010024000093D000024F400EC
:10307000FFFC0F0000127A000048E8016921095C9A
:10308000212901D002207047014640314A8A002A96
:1030900012D0012382681B039A4202D10269002ADE
:1030A00015D0C26C531CC364006812788262488ACF
:1030B000401E48820020704701680A6880239A43B6
:1030C0000A6000680168402211430160F2E7C26CA7
:1030D00003681288D205D20D9A62C26C921CC26437
:1030E000E5E7FFB581B01E46174605460A9C1CE081
:1030F000601C1AD0002C04D0FDF76AFD801BA04292
:1031000013D928680168FF22A13291430160286821
:103110008168490849008160202060356872A87282
:1031200000202872032005B0F0BD2868C16902980C
:10313000884304D00020B842DAD00020F3E7012011
:10314000F9E7000010B50D49C869800612D50C4892
:1031500002680C4B1A400260002242624A6A0B4924
:10316000094B4C7A1A554A7A521C4A72016801225C
:10317000114301600648FEF7BFFF10BD0044004048
:1031800000140140FEFF0000740500202000002014
:103190006401002010B50E490C4A0A600D4A8000F7
:1031A0001058486000208860C86008618861C86164
:1031B0000C2208624A6148620346024601460448FE
:1031C000FEF716FA002800D0FEE710BD00440040CC
:1031D000640100204859000838B57D20C000FDF783
:1031E000ADFBFFF703FC01F052FE002000F098F861
:1031F000022000F095F8FDF775F81448FEF74CFA38
:10320000134C0125207B092802D0A16B002900D195
:103210002574002812D10FA10FA001F015FF002086
:10322000009010480023C1788078012201F078FDD9
:103230000D4840786074207B002806D0C0B2182862
:1032400003D0252801D02574257338BDB000002097
:103250000000002000000000CACED0CCCBC5CDC8F5
:10326000C5000000540200208412002010B5002187
:1032700000F006F810BD10B5012100F001F810BDF6
:1032800073B50C463223012269461648FEF7E8FC66
:1032900001F076FC05252D07002C01D0012200E06D
:1032A000002280212846FDF78CFC042000F05CF809
:1032B0000122940321462846FDF783FC142000F0E8
:1032C00053F8002221462846FDF77BFC7D20C000F4
:1032D00000F04AF8002280212846FDF772FC01F038
:1032E0005FFC7CBDD400002030B47446641E257899
:1032F000641CAB4200D21D46635D5B00E31830BC2A
:10330000184702E008C8121F08C1002AFAD1704706
:103310007047002001E001C1121F002AFBD1704755
:10332000F8B5B8270546861C0FE028463843C0B2DA
:10333000FFF79CFF0020FFF799FF00240020FFF714
:103340009AFF641C3D2CF9DB6D1CB542EDDBF8BD2A
:1033500008B5002100910A214843009901E0491C69
:1033600000918842FBD108BD08B50021009181423F
:1033700001D0491CFAE708BDC11E022902D9C01FAD
:10338000082801D80120704700207047FEB0FDF7E3
:1033900067FCFFF72BFBFFF7A9FBFC48C16A01257F
:1033A0002943C162C06A002428400090F848789000
:1033B00003207990052078A97A940007FDF758FB3F
:1033C000FFF768F8FFF774F9FFF746F9FFF7A2F87F
:1033D000FFF7EAF8FFF72AF8EF49EE480860062001
:1033E0004860EE48C86088600846FDF7F7FB002893
:1033F00000D0FEE701F068FD03210520002249030B
:103400000007FDF7DEFBE448FDF71AFC0020FFF79C
:10341000CBFAFF20F530FDF791FA01F0B7FD01F08E
:10342000E5FDDD49F7208031087002204870012059
:1034300008718C70CC700620D74A0021803211545C
:10344000401CAF2180B289008842F5D3D44C20685B
:103450005E90002801D0401C14D10020FCF7EEFF44
:103460000120FCF7EBFF0220FCF7E8FF0320FCF74C
:10347000E5FF0420FCF7E2FF0520FCF7DFFF062054
:10348000FCF7DCFF00235EAE0020C54D1C0281006E
:103490000A1952191268401C80B272501928F6D3CA
:1034A0005E98C049020EFF208930584345182846CF
:1034B000FF308130446822705E9A0068120C0270FE
:1034C0005E98B54A000A803210705E9850700120F4
:1034D000810072580101691880390F6F140E3C7019
:1034E0004F6F140C3C708F6F140A3C70C96F401CF6
:1034F00080B20A701928EBD35B1C9BB2072BC3D395
:10350000A54C80346078FFF76FF86078FFF742FED3
:10351000A148FDF795FB01F0BAFC0020FFF700FF82
:103520000220FFF7FDFEFCF7DDFE9F4C012020741A
:103530000025FF20A576F530FDF700FA00221146A0
:103540000220FDF7D7FB0220FDF7CAFB9748FDF7E5
:103550007BF900211C20FFF7D5F81C20FFF7C8F8E5
:103560008D4E703E30680168202739430160257018
:10357000642305228E493046FEF7DDFE0F228C497A
:103580003046FEF787FE0120207320348248FDF785
:1035900057FB00211C20FFF7B5F81C20FFF7A8F807
:1035A0007D487038006801682022114301600527BA
:1035B0003F0708213846FDF7FFFA7B4E30702EE0BA
:1035C0007548FDF73DFB2078002802D025700020CB
:1035D00007E0764801216030FEF752F880B21E28DD
:1035E00006D2401C82B2714801216030FEF74EF8CD
:1035F0006E487D21002209016030FEF78BF8634898
:10360000816B02041143816301210846FDF78EFBA3
:1036100008213846FDF7D0FA3070012070703078FC
:103620000028CDD07078002813D0604875706030C5
:10363000FEF732F8FFF7D0FD0120207001465B480D
:103640006030FEF71DF85948002201216030FEF776
:103650001DF85148FDF7F4FAA07800280DD0554820
:10366000E1788078884208D0E0702079401C207191
:103670002079132801D90120707601218907086873
:10368000434A521E10400860707D37460028307B48
:1036900006D0002833D0182804D0252802D046E0D0
:1036A00000282CD03C488030457164213F48FDF70C
:1036B0006BF83E48FCF766FF80B27790387B3E4659
:1036C000002808D0112806D0F97ADF200140F172D5
:1036D000F07AFFF769F9A07A7799814201D0012148
:1036E0007172717A002922D001213175F574F27955
:1036F000002A09D07798A072F57135720EE026493C
:10370000012080314871D0E7779A831C9A4213D206
:10371000801E824210DBB079401CB071B0790A285B
:1037200005D9B5717798A07231727572F171787F91
:103730003E46002802D01AE0B571F7E71A491B4847
:1037400000223C316030FEF781F818480022194908
:103750006030FEF79DF817490F480A788030827074
:103760004978C17010493C310978491E0171307B9C
:10377000142825D10F49B37C8A7831469A421FD04C
:10378000227A002A18D0257218E0000000100240AA
:10379000FFFF000000300040D4010020FF0F0000B8
:1037A00000780008CC070020000000205000002016
:1037B000A0060020841200200122227201220A7435
:1037C000FA498A78FA498A7400287DD008463C3044
:1037D0000178FF2089304143F648FF2209180E4640
:1037E000FF3EFF39893E793979326846FCF7C6FCDD
:1037F0000C203018017837790B46417809020B43C9
:103800008178C07809040B43000603430820301870
:1038100001780A46417809020A438178C078090490
:103820000A433946777900063F023943B7790243A4
:103830003F04F079394300063778014338467778FA
:103840003F023843B778F6783F04384336063043B2
:1038500001F068FBD64948710A7B002A59D000283C
:1038600057D0887F002854D1487F002851D108467E
:103870000573012008743D2048748874FCF732FDFC
:10388000CB483C300178FF2089304143C9480918B2
:10389000C748407900010818FF380C2189384118C1
:1038A0000A7813464A78120213438A78C9781204B8
:1038B000134309060B43082141180E7832464E780F
:1038C000360232438E7800E023E0C9783604324372
:1038D000090607790A4339464779C6793F023943D1
:1038E000877936063F0439433143064637783846F0
:1038F00077783F023843B778F6783F043843360686
:103900003043FEF77FFD3C214843A94988630120ED
:103910000875A748007A002829D0A54E307B0028DA
:1039200077980FD00B38042834D2FF209130FFF75E
:103930000FFDE07A00282AD0307E002866D00120D2
:10394000A07355E018380328607C19D200280FD0E6
:10395000307E0028E0D09848FEF7ACFAB563F576E3
:103960006574B57500223221312001F039F997E1F3
:1039700001206074914845628F48FEF78FFA8FE10D
:103980000028F4D065748C48FEF794FA88E1012091
:10399000E07218E077981438042816D2FF2091308E
:1039A000FFF7D6FC207B00280BD0307E00282DD0DE
:1039B0000120E0738048FEF77DFA8148FFF7C8FCDC
:1039C00024E001202073E57419E07798001F042893
:1039D00020D2FF209130FFF7BBFC607B00280BD08A
:1039E000307E002812D0012020747548FFF7B0FC0B
:1039F0007148FEF75FFA09E0E574012060736F48D3
:103A000045626D48FEF74AFAA570F573B07B002851
:103A10000BD045E10120E074B17B3046002907D08E
:103A20008573E572A573057602E0E07C002805D079
:103A3000207B617B0843E17A084308D1E07B0028C2
:103A400005D1207C002802D1A07B00288FD06846B9
:103A50000570A07B002804D0684605700120B07373
:103A600019E0E07B002801D0042012E0207C00282F
:103A700001D005200DE0E07A002801D0012008E007
:103A8000207B002801D0022003E0607B002802D0C8
:103A9000032069460870FCF725FC454A0620117B87
:103AA000484B4843C01851736B461B78C05C107379
:103AB0000123137407280CD10A290AD06179FF2247
:103AC000893251433B4A8918FF31813109680978AD
:103AD000A171A17B00290BD0354EFFF74DFC0028CA
:103AE00006D00120B075F075FDF772F8706401E042
:103AF0002F48857568460078012833D968460078D4
:103B000006282FD22A4E307BC01E0300FFF7ECFBA5
:103B10000D08131E2B6091919168D9F9F7F6910069
:103B2000227BE07B244B0243383318790721FEF7D0
:103B30002EFE187114E0227BE07B1F4B02433833CA
:103B400098781821FEF723FE987009E0227BE07B2D
:103B5000194B02433833D8783C21FEF718FED87051
:103B60000120707765E0707B02280AD010280AD007
:103B700068460078022808D06846007803280DD0EF
:103B800057E0657155E006200DE06079401C6071DA
:103B9000607906284DD96571102017E060790028FA
:103BA00012D06079401E607143E000008412002052
:103BB00000000020CC0700201C020020000801406B
:103BC000D0200000C850000865710220307330E03A
:103BD000227BE07B19210243A079FEF7D8FD24E087
:103BE000227BE07B02436079FF218931FE4B484311
:103BF000C018FF30813000680078401CC1B2A07945
:103C0000FEF7C5FDA071A07900280FD1207BE17BD4
:103C1000084301D0012008E06079FF218931484341
:103C2000C018FF30813000680078A0716079401CB6
:103C3000B077EE48FEF73EF9ED4E3D207074B07F50
:103C4000002802D0B07F3077B577707F00281BD076
:103C50007577E64FE649383738793C31401C887033
:103C600007224A701322CA7008700022E148FDF74B
:103C70009FFEE148B9780170F9784170857001467E
:103C80000022DC48FDF7FCFE0120F073E07C0028F8
:103C900006D025736573E572E5732574A5733576D3
:103CA000D34E307B0300FFF71FFB1584FDFCFBFAAE
:103CB000F9F8F7F6F5F4F3F2F1F0EFEEEDECEBEAEC
:103CC000E9006079FF2189314843C74BA179C018C9
:103CD000090140188038227BE17B006F0A4300789D
:103CE0001821FEF754FD6179FF2289325143A279F0
:103CF000C918120189188039096F58E03BE01DE0AE
:103D0000FFE76079FF2189314843B74BA179C0189B
:103D1000090140188038227BE17B406F0A4300781C
:103D20003C21FEF734FD6179FF2289325143A279AB
:103D3000C918120189188039496F38E06079FF216C
:103D400089314843A84BA179C0180901401880382F
:103D5000227BE17B806F0A4300781821FEF717FD74
:103D60006179FF2289325143A279C9181201891859
:103D70008039896F1BE06079FF21893148439A4B74
:103D8000A179C018090140188038227BE17BC06FFF
:103D90000A4300783C21FEF7FAFC6179FF22893260
:103DA0005143A279C918120189188039C96F087066
:103DB0003CE7307C3746002814D090A190A001F059
:103DC00043F93D74F87A20210843F872F87AFEF737
:103DD000EBFDA570FD736078401C6070844827304F
:103DE000FEF7E3FC8448797C407888422FD038790C
:103DF000002804D039793846012903D017E0012082
:103E0000387114E00221017101F041F87BA17CA01E
:103E100001F01AF93D74F87A20210843F872012064
:103E2000FFF796FAF87AFEF7BFFDA570FD736F4AAB
:103E300000953832D17890780023012200F070FF8D
:103E40006D48417879746A482730FEF7AEFC6A48BD
:103E5000B97C8078884230D0F87A20210843F87203
:103E60000120FFF775FAF87AFEF79EFD002319226C
:103E7000B86B0121401E00F0B2FF14E029E0FDE321
:103E8000FDE3FDE3FDE3FDE3DCE382E321E39CE20C
:103E900035E2E9E1ACE166E11DE1F8E0D4E089E07A
:103EA00054E03EE016E0B86B401EB863524880789C
:103EB000B8744F482730FEF778FCB86B002808D15B
:103EC00001207876F87ADF210840F872F87AFEF758
:103ED0006BFDB6E3307C002821D035740020FFF75D
:103EE0001FFAFCF7FFF948A14AA001F0ADF82E2116
:103EF0000022084600F074FE00222A214D2000F026
:103F00006FFE00223221522000F06AFE002238218A
:103F1000552000F065FE36482730FEF746FC7576E2
:103F2000D7E7307C0028D4D03CA13EA001F08CF82B
:103F300035742E480023383000792822194600F0C5
:103F4000A9FE2A4800953830C17877E0307C0028F7
:103F50000DD032A133A001F077F824480095383015
:103F6000C17880782323012200F0DAFE357401271E
:103F70007777FCF72DFE3064716C411AFA2901D96C
:103F8000B7757064B17D30460029A2D08575C17DBA
:103F9000002905D0C575154838300079012304E0A3
:103FA000C77512483830007900232822002100F01C
:103FB00071FE09E2307C002804D018A119A001F09C
:103FC00043F83574012037467077FCF701FE3864FA
:103FD000796C411AFA2902D90121B9757864B87D42
:103FE00000289DD0BD751FE0CC0700201C020020DA
:103FF00000000020B000002084120020000000001B
:10400000C0DDD0C0D6C8DF004145524F2076312EEA
:10401000304C00004156544F4B4F5200C2D0C5CCDB
:10402000DF000000D3D1D200F87D002802D0FD755A
:10403000012028E00120F875009525E080782323F1
:10404000012200F06DFEFBE3307C002805D0FE4924
:104050000846083000F0F8FF3574012037467077C5
:10406000FCF7B6FD3864796C411AFA2902D90121AE
:10407000B9757864B87D002887D0BD75F87D0028B3
:10408000D8D0FD7502200090F048C178D6E7317C89
:1040900030460029A5D0057400231A4619466079D8
:1040A00000F0F8FD60790023401CC0B214221946CC
:1040B00000F0F0FD60790023801CC0B22822194670
:1040C00000F0E8FD01220021032000F089FD01221B
:1040D0000621032089E0307C002818D035746079EF
:1040E000FF2189314843DA494018FF308130406868
:1040F0000078002801D0D7A100E0D9A1DBA000F012
:10410000A3FF00231A461946607900F0C3FDFCF7AF
:104110005FFD3064716C3746411AFA2902D90121DA
:10412000B9757864B87D0028A6D0BD75F87D0028E3
:1041300002D0FD75012302E00120F87500232A2238
:104140000021A07900F07AFDCB48FEF72EFBA27982
:104150006179FF2089304143BD480818FF30813024
:10416000006802706FE3307C002822D03574C3A150
:10417000002000F0E3FC6079FF2189314843B44915
:104180004018FF30813040680078002801D0B1A18C
:1041900000E0B3A1012000F0D1FC00232A2219463F
:1041A000A07900F04BFD00231A461946607900F013
:1041B00071FDFCF70DFD3064716C3746411AFA2928
:1041C00002D90121B9757864B87D0028CAD0BD75BF
:1041D000F87D002804D0FD75002236213E2004E041
:1041E0000120F87500223621104600F0F9FC27E383
:1041F000307C002810D035749CA1002000F09EFC7B
:1042000000232A221946A07900F018FD00231A463F
:104210001946607900F03EFDFCF7DAFC3064716C01
:104220003746411AFA2902D90121B9757864B87D57
:10423000002897D0BD75F87D002811D0FD756079F4
:10424000FF218931484382494018FF30813040685E
:10425000007800284FD07FA1012000F06FFCEFE232
:104260000120F87588A1F7E7307C002821D035744B
:104270007EA1002000F062FC6079FF218931484373
:1042800073494018FF3081304068002801D071A187
:1042900000E073A175A000F0D7FE00232A22194682
:1042A000A07900F0CBFC00231A461946607900F093
:1042B000F1FCFCF78DFC3064716C3746411AFA2929
:1042C00002D90121B9757864B87D0028B1D0BD75D7
:1042D000F87D0028B2D10120F8756079FF2189317D
:1042E00048435B494018FF3081304068007800281F
:1042F00003D068A1B0E75AA1AEE769A1ACE7307C72
:10430000002844D0357469A16AA000F09DFE002306
:104310001A461946607900F0BDFC00956079FF21CE
:10432000893148434A494118A0790001081880386A
:10433000406F01786079FF2289325043444A8218E5
:10434000A0791E23000110188038006F0022007829
:1043500000F0E6FC00956179FF20893041433C483C
:104360000918A079000108188038C06F01786079B9
:10437000FF2289325043364A8218A0791E23000159
:1043800010188038806F0122007800F0C9FCFCF71B
:104390001FFC3064726C3146821AFA2A02D901225B
:1043A0008A754864887D002890D08D75C87D002866
:1043B00002D0CD75012302E00120C8750023002240
:1043C0000121A07900F03AFC3AE2307C00282CD0A0
:1043D000357436A137A000F037FE00231A4619467F
:1043E000607900F057FC00231A460121A07900F003
:1043F00025FC00956179FF20893041431448A2795A
:104400000918120189188039C96F62790978FF2368
:1044100089335A431018A2791E231201801880385C
:10442000806F0122007800F07BFCFCF7D1FB306448
:10443000726C3146821AFA2A02D901228A754864BE
:10444000887D0028B0D039E01C40000854020020CC
:10445000CC070020C2CACB20202020C2DBD5000020
:10446000C2DBCACB202020C2DBD50000202020CA1E
:10447000CECB2020203E000027000020202020CA94
:10448000CECB20202020000020202020202020C271
:10449000DBD50000C2CACB20202020202020000035
:1044A000C2DBCACB2020202020200000202020C4F6
:1044B000CE000000202020CED20000008D75C87DE7
:1044C000002802D0CD75012048E00120C875009574
:1044D00045E0307C00282DD03574FE490846083070
:1044E00000F0B2FD00231A461946607900F0D2FBB5
:1044F00000231A460121A07900F0A0FB0095617904
:10450000FF2089304143F448A27909181201891823
:104510008039C96F62790978FF2389335A431018AB
:10452000A2791E23120180188038806F0122007842
:1045300000F0F6FBFCF74CFB3064726C3146821ADB
:10454000FA2A02D901228A754864887D002878D029
:104550008D75C87D0028B8D0CD7502200090617996
:10456000FF2089304143DC48A279091812018918DB
:104570008039496F62790978FF2389335A431018CB
:10458000A2791E23120180188038006F0022007863
:1045900057E5307C00282DD03574CE4908460830C8
:1045A00000F052FD00231A461946607900F072FBB4
:1045B00000231A460121A07900F040FB00956179A3
:1045C000FF2089304143C448A27909181201891893
:1045D0008039496F62790978FF2389335A4310186B
:1045E000A2791E23120180188038006F0022007803
:1045F00000F096FBFCF7ECFA3064726C3146821ADC
:10460000FA2A02D901228A754864887D002818D0C8
:104610008D75C87D00287BD0CD7501200090617913
:10462000FF2089304143AC48A2790918120189184A
:104630008039C96F62790978FF2389335A4310188A
:104640005DE09FE0307C002833D03574A1490846F6
:10465000083000F0F9FC00231A461946607900F092
:1046600019FB00231A460121A07900F0E7FA009512
:104670006179FF2089304143974804E0A1E092E04E
:1046800081E056E048E0A2790918120189188039C2
:10469000496F62790978FF2389335A431018A27948
:1046A0001E23120180188038006F0022007800F06D
:1046B00037FBFCF78DFA3064726C3146821AFA2AA5
:1046C00002D901228A754864887D00285AD08D75E8
:1046D000C87D00281CD0CD75022000906079FF2194
:1046E000893148437C4AA1798018090140188038F3
:1046F000C06F01786079FF23893358438018A2790D
:10470000120180188038806F1E23007898E4FFE73C
:104710000120C875009582E7307C002832D06FA157
:104720006FA000F091FC3574F17ADF200140F17246
:1047300035E0307C002802D1B07D002812D06BA17A
:1047400067A000F081FC37463574B575F07A2021FA
:104750000843F072F07AFEF727F9A570FD736548FB
:10476000FEF723F86448B17C8078374688426AD0E7
:10477000F97A20200143F972F87AFEF715F95E48BC
:104780008078B8745FE0307C00285CD053A15BA0D7
:1047900000F05AFC3574F07ADF210840F072F07AAC
:1047A000FEF702F94CE0307C00284CD04BA153A01E
:1047B00000F04AFC357400231A4601216079FFF7A6
:1047C000F6FB307C00283ED000231A460121607998
:1047D00000F060FA4B4F0A21B878FBF789FC3030C3
:1047E000C0B20122222100F0FBF9B8780A21FBF7C0
:1047F0007FFC084630300122282100F0F1F9207AB0
:10480000002803D001222D213A2002E001222D218F
:10481000104600F0E5F9F8780A21FBF769FC303022
:10482000C0B20122312100F0DBF9F8780A21FBF750
:104830005FFC084630300122372100F0D1F9357491
:104840002C48FDF7B2FFF07B002806D02A4880787C
:10485000E0700120A0702571F573F07C002801D074
:10486000F574357523482738407E002828D0214E1E
:10487000273EF07ADF210840F072F07AFEF794F8D4
:104880006571FBF72FFD1420307301273774A57075
:104890002571757635763D207074B074707F002870
:1048A0000CD07577174A144891780170D17841700F
:1048B0008570014600221448FDF7E2F8A570F774F0
:1048C0000C4E273EB07F002824D0307BFEF754FDED
:1048D00000281BE0AC440008CC07002000000000CA
:1048E000D0D3D7CDCEC520C2CACB0000C0CAD2C853
:1048F000C2CDCE002700002084120020D1C1D0CE2E
:10490000D100000054020020B000002002D1B07F8E
:104910003077B577307F002807D0307F401EC0B297
:10492000FBF78CFD357701203074B078002801D179
:10493000FEF72CFE00200090B570794F7948397849
:10494000007881427ED1617A3846FBF7A7FC0004EB
:104950007549000C888675D178783E46032809D0C1
:1049600006283BD071493A780A708030487001209F
:104970008870A5E0B078019000282AD13079F178CC
:10498000727907028B187F1EDF19AF239B009F42AD
:104990001FDA02281DD23078644B624E1870032053
:1049A00058705000891998708C46019900200F02A8
:1049B00008E061463B18CB5C5C49460071180B71FE
:1049C000CD70401C8242F4DC58488078C01CC6B2CE
:1049D00088E056483178017083216EE0B078002875
:1049E00004D0012844D002285AD062E0F07802288E
:1049F0005FD90F285DD231794B4F002931D14C4A14
:104A00007179125C91422CD2464A0E28115404D07E
:104A1000032806D0042804D00EE00120F87000918D
:104A20000AE0444891780170D17841708570014660
:104A300000224148FDF724F8FD76012139773974C9
:104A4000317800E06AE03948017006214170B178A0
:104A50008170F178C17031790171717941710626E7
:104A600040E032483178017016214170032126E080
:104A7000F778012F1DD13379002B1AD17279022AD0
:104A800017D22A4936780E7006264E708870CF707D
:104A90000B714A712448012101741821017321E02E
:104AA000F778002F05D13379002B02D17279002AD3
:104AB00008D01E48317801701621417002218170A2
:104AC00003260FE0194936780E7006264E7088705E
:104AD000CF700B714A71144901200876A0740874D4
:104AE0001820087331461148FBF7D8FB0E4F0F49C9
:104AF000B8868855000A891948700F486423B21C8B
:104B00000A49B430FDF717FCF878002806D0FD708C
:104B10000098FEF73FFB0098FDF766FD657207E71A
:104B2000740500205402002000000020A006002090
:104B30007559000884120020B0000020F8B5064620
:104B40000F460846FBF72CFBC5B2002408E02146BF
:104B500006204143385D324600F042F8641CE4B25E
:104B6000AC42F4D32C4608E02146062041433246AD
:104B7000002000F035F8641CE4B20A2CF4D3F8BD30
:104B800000B585B0802000900120019000200390A6
:104B90000290052069460007FBF76AFF05B000BDDB
:104BA00000B585B0802000900220019000210320F4
:104BB000039002910491052069460007FBF758FF16
:104BC00005B000BD70B5044616460D46007800F0ED
:104BD00007F860783246A91D00F002F870BD0000A9
:104BE000F0B506235843134B134EC4188B1D002AEF
:104BF00001D0C8B219E0C8B209E0421AA55C42006F
:104C0000B75A3F0A3F02ED19401CB552C0B23E28C8
:104C100001D29842F1DBF0BD421AA25C15024200BB
:104C2000B75CED19401CB552C0B23E28F3D2984291
:104C3000F2DBF0BD465100089812002070B5144612
:104C40000D460646002B0AD0012B21D10A462146EB
:104C50000120FFF7C5FFA11D2A46012016E0092EFD
:104C600007D90A21FBF744FA3030C0B22A46214660
:104C700002E00A4621460120FFF7B2FF0A21304632
:104C8000FBF736FA084630302A46A11DFFF7A8FF89
:104C900070BD000030B514460D46002B0AD00A4600
:104CA00021460120FFF79CFF2A46A11D0120FFF7A6
:104CB00097FF30BD0300FEF717FB07060A10141814
:104CC0001C200500EBE70A4621460EA002E00A463A
:104CD00021460DA0FFF776FF30BD0A4621460BA006
:104CE000F8E70A4621460AA0F4E70A46214609A049
:104CF000F0E70A46214608A0ECE70A46214607A04D
:104D0000E8E70000CFCD0000C2D20000D1D0000003
:104D1000D7D20000CFD20000D1C10000C2D1000024
:104D2000FFB51F4681B00B373E1D0A99B51D1C46C5
:104D3000002925D0012933D002291FD10A21FBF7F0
:104D4000D7F930300091C0B22146039AFFF748FFEF
:104D50000099039A08463030A11DFFF741FF3946FC
:104D60003A20039AFFF73CFF31460120039AFFF7F0
:104D700037FF29460120039AFFF732FF05B0F0BD47
:104D80000A21FBF7B5F930300091C0B22146039AF1
:104D9000FFF726FF0099039A08463030A11D07E06F
:104DA00019460120039AFFF71BFFA11D0120039A5A
:104DB000FFF716FF39463A20039AFFF711FF0A2141
:104DC0000298FBF795F90C463030C0B23146039A91
:104DD000FFF706FF204630302946039ACCE7FFB59F
:104DE000E12181B0144605460901FBF781F9C7B2FC
:104DF00008463C21FBF77CF9C6B23C212846FBF76C
:104E000077F90D460A213846FBF772F90F46303024
:104E1000C0B22146029AFFF7E3FE38463030A11DAA
:104E2000029AFFF7DDFE21460B313A20029AFFF786
:104E3000D7FE0A213046FBF75BF90E46303021469B
:104E4000C0B20F31029AFFF7CBFE30462146303018
:104E50001531029AFFF7C4FE21461B313A20029A0F
:104E6000FFF7BEFE0A212846FBF742F90D46303017
:104E70002146C0B21E31029AFFF7B2FE28462146F3
:104E800030302431029AFFF7ABFE05B0F0BD10B50B
:104E90006420FEF769FA0220FBF750FDE220FEF7DE
:104EA000E5F9EE20FEF7E2F9A420FEF7DFF9A820ED
:104EB000FEF7DCF9C020FEF7D9F9A020FEF7D6F9FD
:104EC000AF20FEF7D3F910BDF0B5144F0021FF203D
:104ED00089300C46444312487A1824182046FF3083
:104EE000931D81300D320CC0002060220E465643C7
:104EF00082009219D219154603011435E5506D1C34
:104F0000E3185D606D1C1732401C9D60DA60182844
:104F1000EEDB491C0729DADBF0BD0000540200205B
:104F2000CC0700200FB470B565980078012828D10F
:104F3000154A3C2311785278002059438A18649905
:104F400004AD0C781BE001016B583C261B78491915
:104F500073434E6836789B1993420ED28B68C968AA
:104F60001B783C26097873435918914205D9401C97
:104F7000C0B270BC08BC04B01847401CC0B2844228
:104F8000E1D80020F5E700008412002070B5124837
:104F9000416B04221143416311480021124D81608D
:104FA0000E4CC5600F4E016150C00838FCF74EFF33
:104FB000002800D0FEE7A662E562E0680121084310
:104FC000E0602068082210432060206808432060C9
:104FD0001420FDF78DFB70BD001002400008014059
:104FE0001C0200203F1F0000DC05000070B51349C3
:104FF000886B0125284388638C0411480021C8224E
:105000008160C2600F4E016150C00838FCF71EFF7E
:10501000002800D0FEE7A6627D20C000E062E068C4
:105020002843E06020680821084320602068284366
:1050300020600F20FDF75CFB70BD000000100240F7
:105040002C0100203F1F0000F3B581B00E460198EF
:10505000FBF7A6F8C7B23046FBF7A2F8C5B20024AA
:1050600009E006202146414301980022005DFFF738
:10507000B7FD641CE4B2BC42F3D33C4608E02146D1
:105080000620414300221046FFF7AAFD641CE4B24B
:105090000A2CF4D3002408E0062021464143305D69
:1050A0000122FFF79DFD641CE4B2AC42F4D308E09A
:1050B00029460620414301220020FFF791FD6D1C87
:1050C000EDB20A2DF4D3FEBD000000000000020284
:1050D000020202020306061402020204030303038F
:1050E0000205040404040203050505050706060677
:1050F00006060708070707070B0908080808090A32
:105100000909090906070A0A0A0A070C0B0B0B0B07
:10511000070D0C0C0C0C070E0D0D0D0D070F0E0ED0
:105120000E0E070B0F0F0F0F111212061010111099
:10513000101010101314141012121213131313134F
:10514000020202121414000000000000000000001F
:105150000000000000000000010101010101000049
:10516000000000000000000000000000000000003F
:10517000000000000000000000000000000000002F
:10518000000000000000000000000000000000001F
:10519000000000000000000000000000000000000F
:1051A00000000000000000000000000000000000FF
:1051B00000000000000000000000000000000000EF
:1051C00000000000000000000000000000000000DF
:1051D00000000000000000000000000000000000CF
:1051E00000000000000000000000000000000000BF
:1051F00000000000000000000000000000000000AF
:105200000000000000000000000000000007000790
:105210000000147F147F1400246A2A2B1200231329
:105220000864620036495522500000050300000062
:10523000001C224100000041221C000014083E080E
:10524000140008083E08080000503000000000600C
:10525000602000000060600000000060600000004E
:105260000000000000003E5149453E0004427F40DE
:1052700000004261514946002141454B310018145C
:10528000127F10002745454539003C4A4949300006
:105290000171090503003649494936000649494963
:1052A0003E000036360000000056360000000814AC
:1052B00022410000141414141400412214080000A8
:1052C000020151090600324979413E007E11111157
:1052D0007E007F49494936003E41414122007F41DD
:1052E00041221C007F49494949007F090909010001
:1052F0003E41494972007F0808087F0000417F4114
:1053000000002040413F01007F08142241007F40FF
:10531000404040007F020C027F007F0408107F00A5
:105320003E4141413E007F09090906003E415121AD
:105330005E007F09192946004649494931000101AB
:105340007F0101003F4040403F001F2040201F00E0
:105350003F4038403F00631408146300070870089A
:105360000700615149454300007F414100000204AC
:10537000081020000041417F0000040201020400E7
:105380004040404040280001020400002054545492
:1053900078007F484444380038444444200038446E
:1053A00044487F00385454541800087F010102001B
:1053B0000C5252523E007F080404780000447D40A5
:1053C00000002020443D00007F1028440000000021
:1053D0007F4020007C04180478007C0804047800D6
:1053E0003844444438007C14141408000814141879
:1053F0007C007C0804040800485454542000043FF6
:10540000444020003C4040207C001C2040201C00E8
:105410003C4030403C004428102844000C50505080
:105420003C004464544C44001F001F111F001F0027
:105430001D1517001F0017151D00380408100E0059
:105440002A2A7F2A2A007C1211127C007F494949AE
:1054500031007F49494936007F0101010300603E68
:10546000213F60007F494949410077087F08770064
:105470002249494936007F2010087F007C2012090C
:105480007C007F0814224100403E01017F007F0222
:105490000C027F007F0808087F003E4141413E002A
:1054A0007F0101017F007C55545544003855545507
:1054B0001800201008040200020408102000301810
:1054C0000C060300060C1830600008492A1C08006E
:1054D000081C2A49080010207F20100004027F02C7
:1054E000040008086B0808002222272222007810F6
:1054F000207B03005D3614365D00000705070000C1
:10550000304848030300080F080F08081414F41467
:10551000141408F808F80808000F080F080800001D
:105520001F1414140000FC14141400F808F80808E0
:1055300008FF08FF08087C55544500001414FF14A8
:10554000141408080F0000000000F8080808E7E736
:10555000E7E7E7E7E1E1E1E1E1E1FFFFFF0000006C
:10556000000000FFFFFF4900490049006B146B1465
:105570006B007F497F497F000000FF0000000808A2
:10558000FF0000001414FF00000008FF00FF0000EF
:1055900008F808F8000038555455580014F700FF73
:1055A000000000FF00FF000014F404FC00001417CA
:1055B000101F0000101F101F000014141F00000017
:1055C0000808F80000007C1211127C007F4949494C
:1055D00031007F49494936007F0101010300603EE7
:1055E000213F60007F494949410077087F087700E3
:1055F0002249494936007F2010087F007C2012098B
:105600007C007F0814224100403E01017F007F02A0
:105610000C027F007F0808087F003E4141413E00A8
:105620007F0101017F007F09090906003E414141D8
:10563000220001017F0101002F5050503F000C1249
:105640007F120C006314081463003F20203F4000C9
:105650000F1010107F007F407E407F003F203E20D3
:105660007F00017F484830007F4830007F007F483E
:1056700048483000224149493E007F083E413E00F3
:10568000462919097F002054543840003854545496
:1056900022007C54545428007C0404040400403C40
:1056A000243C40003854545458006C107C106C005A
:1056B0002844545428007C2010087C007C201209C7
:1056C0007C007C1010284400403804047C007C08D6
:1056D00010087C007C1010107C00384444443800D2
:1056E0007C0404047C007C141414080038444444F2
:1056F000280004047C0404000C5050503C0038285E
:105700007C2838004428102844003C20203C4000DD
:105710000C1010107C007C4078407C003C2038202D
:105720007C00047C505020007C5020007C007C5089
:10573000505020004444545438007C103844380001
:10574000085434147C0000C1814001C0804101C074
:10575000804100C1814001C0804100C1814000C141
:10576000814001C0804101C0804100C1814000C131
:10577000814001C0804100C1814001C0804101C021
:10578000804100C1814001C0804100C1814000C111
:10579000814001C0804100C1814001C0804101C001
:1057A000804100C1814000C1814001C0804101C0F1
:1057B000804100C1814001C0804100C1814000C1E1
:1057C000814001C0804101C0804100C1814000C1D1
:1057D000814001C0804100C1814001C0804101C0C1
:1057E000804100C1814000C1814001C0804101C0B1
:1057F000804100C1814001C0804100C1814000C1A1
:10580000814001C0804100C1814001C0804101C090
:10581000804100C1814001C0804100C1814000C180
:10582000814001C0804101C0804100C1814000C170
:10583000814001C0804100C1814001C0804101C060
:10584000804100C1814000C0C101C30302C2C6063D
:1058500007C705C5C404CC0C0DCD0FCFCE0E0ACAA8
:10586000CB0BC90908C8D81819D91BDBDA1A1EDEF8
:10587000DF1FDD1D1CDC14D4D515D71716D6D212A8
:1058800013D311D1D010F03031F133F3F23236F6B8
:10589000F737F53534F43CFCFD3DFF3F3EFEFA3A68
:1058A0003BFB39F9F83828E8E929EB2B2AEAEE2EF8
:1058B0002FEF2DEDEC2CE42425E527E7E62622E268
:1058C000E323E12120E0A06061A163A3A26266A6B8
:1058D000A767A56564A46CACAD6DAF6F6EAEAA6A28
:1058E0006BAB69A9A86878B8B979BB7B7ABABE7E78
:1058F0007FBF7DBDBC7CB47475B577B7B67672B228
:10590000B373B17170B050909151935352929656B7
:105910005797559594549C5C5D9D5F9F9E5E5A9AE7
:105920009B5B99595898884849894B8B8A4A4E8E77
:105930008F4F8D4D4C8C44848545874746868242E7
:10594000438341818040000060090000C0120000D4
:105950008025000040380000004B00000096000049
:10596000C0DA000000E1000000C201000F080403DB
:105970000202020202000000183C183C183C643C81
:105980006464F70900000000000000000102030445
:1059900006070809030406080C1018203000000050
:1059A0000001020304000000C859000800000020A4
:1059B0005000000002330008185A00085000002070
:1059C000E016000012330008000000000000000193
:1059D0000000000009090000013D3D000100000039
:1059E0000000000000000001016400000000000051
:1059F00000000000000000000000000000000000A7
:105A00000000000000000000000000000000000096
:085A10000000000080841E006C
:04000005080000C12E
:00000001FF
