:020000040800F2
:1000000030170020D5000008792700087D2400085B
:1000100000000000000000000000000000000000E0
:10002000000000000000000000000000C52A0008D9
:10003000000000000000000019280008C72A00087E
:10004000E7000008E700000881290008E700000831
:10005000E70000082D03000837030008E700000848
:1000600000000000E7000008E7000008E7000008C3
:10007000E7000008E700000800000000AD2C0008C1
:100080000000000000000000000000000000000070
:100090004D2C000800000000812C0008E70000083B
:1000A00000000000E7000008000000000000000061
:1000B0002D320008E70000080000000000000000EA
:1000C0000348854600F094F800480047D5340008FE
:1000D000301700200448804704480047FEE7FEE749
:1000E000FEE7FEE7FEE7FEE7812B0008C1000008FF
:1000F00030B50B46014600202022012409E00D46C0
:10010000D5409D4205D31D469540491B2546954047
:1001100040191546521E002DF1DC30BDF0B51FB45C
:100120000646002082B005464024019100901BE065
:10013000019922460F46304600F049F8049A059B83
:10014000801A994110D310461946224600F02FF824
:10015000361A8F410197224601200021009F00F0AE
:1001600026F838184D4100902046641E0028DFDC38
:10017000019B00982946324607B0F0BD03460B4369
:100180009B0703D009E008C9121F08C0042AFAD24D
:1001900003E00B780370401C491C521EF9D27047D3
:1001A000421C0178401C0029FBD1801A704710B511
:1001B000202A04DB0146203A9140002010BD9140E6
:1001C00020239C1A0346E3401943904010BD10B50C
:1001D000202A04DB0846203AD040002110BD0B46FF
:1001E000D340D0402024A21A91400843194610BDA4
:1001F000064C0125064E05E0E36807CC2B430C3C7A
:1002000098471034B442F7D3FFF75EFF645F0008ED
:10021000845F000838B50446064805490068FFF7C2
:1002200067FF604300E0401E00900028FBD138BD0E
:1002300040420F004C000020F8B504460068816879
:100240008907890F012902D10168C90722D1816874
:10025000114A10261140012500290ED18168294339
:1002600081600120FFF7D6FF00F0F0FC07460CE0AC
:1002700000F0ECFCC01B0A2807D9A06D3043A06534
:10028000E06D2843E0650120F8BD20680068C043A8
:10029000C007EDD10020F8BD170000807EB5FF2219
:1002A0006B461A701A710E4B0022DC1DF9340EE0F9
:1002B0006E46855C3679754002956E465D5D367892
:1002C00075406E463571029D655D3570521C491E44
:1002D000EED2694608780979000208437EBD000025
:1002E000125D000810B5072810D2FF240021084B2A
:1002F000893460430A46C31808011A50181842602E
:10030000491C8260C9B2C2601829F5D310BD000033
:10031000CC0700200020044902464300401CC0B224
:10032000CA523D28F9D370479812002010B5022018
:1003300000F0D0FB10BD10B5082000F0CBFB10BDC5
:1003400010B5084900234B6107494A684C15224300
:100350004A604A68082422434A60C009C001036019
:1003600010BD0000141300200020024010B5214AE7
:1003700000209169CB05204904D548690223184320
:100380004861901593699B0505D54B69012423436A
:100390004B616302184393695B0505D54B690824DB
:1003A00023434B61E301184393691B0505D54B6952
:1003B000042423434B616302184393699B0405D5CE
:1003C0004B69102423434B616302184393699B03D9
:1003D00004D54C6920231C434C6118439369DB030B
:1003E00005D54B69402423434B61A102084390612A
:1003F00010BD0000002002401413002070B5044618
:1004000000F024FC0546184E0AE0601C08D0002CC1
:1004100004D000F01BFC401BA04201D9032070BD9A
:10042000B069C007F1D1B069800701D50220B06181
:10043000B069C00511D4B06980050ED4B06940051B
:100440000BD4B069000508D4B069800405D4B06944
:10045000800302D4B069C00303D5FFF787FF0120F2
:1004600070BD002070BD0000002002407FB5002557
:100470000F4803950178407809020C4C0E1800F0E3
:1004800009FB0120029003A900950194684600F041
:100490009FFA002801D000F0D5FA3246214602200A
:1004A00000F0DAFA00F0CEFA7FBD00000078000814
:1004B00054020020F0B59DB007284ED2284A010210
:1004C0008C18FF2289325043274A002682181C9636
:1004D0001046FF3081304568224B006859782D78EE
:1004E00000781B782D06491900041B02C018081853
:1004F000009000206D460301D118D358CF681B78B7
:100500003F781B06FB184F6889683F7809783F04DD
:1005100009027918591883005B19401CC0B2596050
:100520001828E8D300F0B6FA01201B901CA91996F0
:100530001A9419A800F04CFA002801D000F082FAB1
:100540000026B0002A580119022000F085FA761C16
:10055000F6B2192EF5D300F075FA1DB0F0BD00000B
:100560000070000854020020CC070020F8B50546B2
:100570000C464035297D01290DD0012129750168DE
:100580008A68520709D5816D2022114381650020B8
:1005900028750120F8BD0220F8BD174B6268D80508
:1005A00047109A42154E8A6A236812D05B035B0B90
:1005B0001A438A622168490305D5B1680143B160D5
:1005C0000A20FFF727FE2068800312D5B068384361
:1005D0000EE05B035B0B9A438A622168490302D5F4
:1005E000B1688143B1602068800302D5B068B84328
:1005F000B06000202875F8BD011000000027014000
:100600000068006C7047000070B5040006D0A06D53
:10061000254600264035002802D006E0012070BDA6
:10062000E6652E75204600F0D1F8A06DC00603D413
:1006300020688168490705D5A06D10210843A06591
:100640002E75EBE7A16DFF22013291430222114387
:10065000A16581685B4A8907890F012902D1016878
:10066000C9072BD1032361689B07994205D05B42E0
:10067000994202D05B00994209D101698900890839
:100680000161206801696368194301610CE0016937
:1006900089008908016190680F218904884390606E
:1006A00090686168084390602068C1681823994386
:1006B000C1602068C168A3681943C16090680121C6
:1006C0004906884390609068218F490608439060EE
:1006D00020688168C90004D481680122120711438F
:1006E00081602068C168384A1140C1602069E168B2
:1006F000022823D000200143206A226B40035200CD
:1007000010430143606B0143A06980030143E0692A
:10071000C00301432068C2681143C160A06A01465A
:10072000FF39C23905D0E16A08432168CA6810431D
:10073000C860606A0121012802D00BE00420DAE7DA
:10074000206A002823D0A06D20221043A065E06D10
:100750000843E065206C012820681FD00169C907A3
:1007600003D0016949084900016120684169C9084D
:10077000C900416120684169E26B11434161E6654E
:10078000A06D80088000401CA065002070BD20681E
:10079000C26801231B041A43C260DBE70269FF231E
:1007A0009B009A43026120680269636CE56C1A43FE
:1007B000A36C2B431A430261206802690A43026159
:1007C000D3E70000002701401902FEFF00B50068D2
:1007D0000A4985B088420FD10948416B421511433F
:1007E000416310200090032001900020029005201A
:1007F0006946000700F07AF905B000BD0024014009
:1008000000100240F8B504464069274640370D46BF
:1008100008280BD02068C068C00709D0A06D20212F
:100820000843A065002038750120F8BD082600E0C7
:100830000C2600F00BFA009011E0681C0FD0002D80
:1008400005D000F003FA0099401AA84207D9A06D1C
:1008500004210843A065002038750320F8BD2068F6
:1008600000683042E9D0A06D012149020843A0652B
:100870002068C1680C220905890F00291AD1216A54
:10088000002917D10168090714D581680123490798
:10089000002908DB416891434160A06D190288433B
:1008A0001843A06506E0A06D20210843A065E06D17
:1008B0001843E065A069002801D12068026000208B
:1008C000F8BD000070B5044621680020896849071A
:1008D00021D425464035297D01291CD001212975C7
:1008E000E169012904D02046FFF7A6FC002811D1B8
:1008F000A16D0A4A1140FF2201321143A165002176
:10090000E165297522681C21116021688A68042329
:100910001A438A6070BD022070BD0000FEF1FFFF27
:1009200070B50024024620325179022903D00421F7
:10093000C16301243CE001680B680E25AB430B60EA
:1009400001680B685B085B000B601A4B01689942F9
:1009500001D1012121E0174B1433994201D110211B
:100960001BE0144B2833994201D1891515E0114B36
:100970003C33994201D189140FE00E4B5033994218
:1009800002D10121090408E00A4B6433994202D1E3
:100990000121090501E001210906064B083B5960C8
:1009A0000121517100211171816B002900D088470C
:1009B000204670BD0800024031B500F047F90446FA
:1009C00000F044F90099001B8842F9D338BD0000BB
:1009D000F8B5194F0546387C0E46012807D001208E
:1009E00038741648FFF70AFD002802D020E00220E4
:1009F000F8BD0021C94331606C6813E02046FFF761
:100A00009FFC0E48FFF7FAFC0D494A6808239A43F9
:100A10004A604A684B159A434A60002801D0346006
:100A200006E08034A9686A68C9018918A142E5D83E
:100A300000213974F8BD00001413002050C30000D9
:100A40000020024003484168022211434160002017
:100A50007047000000200240F8B50C4C1646207C80
:100A60000F46012808D0012020740948FFF7C6FC72
:100A70000025002802D006E00220F8BD65613E6036
:100A80000348FFF7BBFC2574F8BD000014130020D9
:100A900050C300000948416889070CD54168C9075F
:100AA00003D00749C1600749C1600749016107498F
:100AB00001610020704701207047000000200240C3
:100AC000EFCDAB8905040302BFAE9D8C1615141340
:100AD0007047000010B504494A69024202D04861DB
:100AE000FFF7F6FF10BD000000040140F0B5002242
:100AF0008DE001249440A44623407DD04C68022C14
:100B000001D0122C0CD1D408A40027183D6A540738
:100B1000E40E0F26A640B5430E69A6402E433E6262
:100B20004C68012C05D0022C03D0112C01D0122CC2
:100B300011D1856854000326A640B543CE68A6406F
:100B40002E43866044686546AC430D79ED06ED0F93
:100B5000954025434560076854000325A5400E795C
:100B6000AF43B607B60FA6403E430660C668AE4325
:100B70008D68A5403543C5604C68E40046D5274CD8
:100B8000666B01252E4366639508254CAD002F1931
:100B9000BD689407240F0F26A640B54305263607E7
:100BA000B04201D100260FE01E4EB04201D1012615
:100BB0000AE01D4EB04201D1022605E01B4EB042B4
:100BC00001D1052600E00626A6402E43BE60184D42
:100BD0002C684E689C43F60300D51C432C606C685F
:100BE0004E689C43B60300D51C436C60AC684E68ED
:100BF0009C43F60202D500E008E01C43AC60EC68C0
:100C00004E689C43B60200D51C43EC60521C0B6836
:100C10001C46D44000D06CE7F0BD0000001002403C
:100C2000000001400004005000080050001C00506B
:100C3000000401400069084000D001207047002AEC
:100C400001D08161704781627047000001480068EF
:100C5000704700004800002070B504000FD02168E4
:100C60001348086021681348086003CC416020687D
:100C7000083C21688860FFF7E9FF054608E001208D
:100C800070BDFFF7E3FF401B302801D9032070BD82
:100C90002068C0680028F4D120680269E1688A42AF
:100CA00001D0016101E004490160002070BD000035
:100CB000CCCC000055550000AAAA000000680249EB
:100CC0000160002070470000AAAA000002480168E5
:100CD000491C0160704700004800002010B506481C
:100CE0000168402211430160002000F007F800F085
:100CF00019F8002010BD00000020024010B5044685
:100D000007487D21C9000068FFF7F2F901F09CF85F
:100D100000222146501E00F02BF8002010BD0000DC
:100D20004C00002010B50C48416B01221143416377
:100D3000816B02041143816300221146501F00F0B1
:100D400017F800221146901E00F012F800221146FA
:100D5000501E00F00DF810BD00100240C106C90E73
:100D600001208840014908607047000000E100E070
:100D700010B501F02FFD10BD0248016802151143A6
:100D8000016070470070004002480168421511433D
:100D900001607047007000400248016882151143ED
:100DA00001607047007000400A4B1A689208920078
:100DB00002431A600848026904231A4302610129A8
:100DC00006D040BF20BF20BF016999430161704731
:100DD00030BFF9E70070004000ED00E0F8B53E4D8F
:100DE000014601230020DB033A4C3B4A40350229EF
:100DF00032D0042949D008295AD020290AD12C6997
:100E0000296903252D0429405E00B14203D1A605BE
:100E100001D51846F8BD01235B04994203D1A3070D
:100E200001D52E48F8BDA942FCD111688903F9D536
:100E3000106803210905084001210905401A09D05D
:100E4000401A05D0884201D12548F8BD2548F8BD93
:100E50002548F8BD2548F8BDE9680C26314009D081
:100E600008290AD004290DD00C29F4D12969890553
:100E7000CFD4F8BD00F0A6F9F8BD11684907FBD53D
:100E80002046F8BD00F0BEF9F8BDE9680326B602B9
:100E90003140EFD00127FF02B94202D11268520758
:100EA000EED4012292029142ECD0B142DED0F8BDE4
:100EB000E96803231B031940DCD001235B0399423B
:100EC00002D112685207DBD4012212039142D9D019
:100ED000F8BD00000024F4000010024088900000DB
:100EE00020A1070000093D0040420F0080841E0041
:100EF000F8B504460078534D80067AD5514800264F
:100F00004038806BC00006D44E484038816B0204E4
:100F10001143816301264C480168C90510D401685A
:100F2000821511430160FFF791FE074604E0FFF7C9
:100F30008DFEC01B64283AD843480068C005F6D52A
:100F400040484038006803210905626808401140A4
:100F500081420AD09003800F032806D139484038D7
:100F60000068800301D50120F8BD28690321090428
:100F7000084021D00A4082421ED0207880061BD52E
:100F800028692A6988430121C9040A432A612A6918
:100F90008A432A612861C0050ED5FFF757FE074630
:100FA00007E0FFF753FEC11B2848814201D9032007
:100FB000F8BD28698005F4D560688103890F03298D
:100FC00008D1204B403B1968032212059143104081
:100FD0000143196028690322616812041140084323
:100FE0002861002E05D017484038826B01048A43DF
:100FF00082632078800705D5E8680C218843A168C2
:101000000843E8602078400706D5E8680321890294
:101010008843E1680843E8602078000706D5E8685F
:1010200003210903884321690843E860207800060A
:1010300006D5E86803218904884361690843E860AC
:101040000020F8BD401002400070004088130000EE
:10105000F8B5044653480E460068C007C00FB042BA
:101060000AD25048016849084900314301600068CC
:10107000C007C00FB0426FD120784B4F800705D515
:10108000F868F0218843A1680843F8602078C00719
:1010900052D06068022817D0032818D03968012878
:1010A00018D08905002957DAF968890889000143B1
:1010B000F960FFF7CBFD05466068022812D00328CF
:1010C0001CD0012826D033E039688903EAE7396863
:1010D0008901E7E74907E5E7FFF7B8FD411B33481A
:1010E000814223D8F8680007800F0228F4D123E05A
:1010F000FFF7ACFD411B2D48814217D8F868000767
:10110000800F0328F4D117E0FFF7A0FD411B27480B
:1011100081420BD8F8680007800F0128F4D10BE05A
:10112000FFF794FD411B2148814201D90320F8BDFE
:10113000F8680007800FF3D11A480168C907C90F82
:10114000B1420BD901684908490031430160006888
:10115000C007C00FB04201D00120F8BD2078400781
:1011600006D5F868072109028843E1680843F8605A
:101170002078000707D5F8680721C902884321694C
:10118000C9000843F86000F03DF8F968084A09060C
:10119000090F515CC840074908600020FFF7AEFD09
:1011A0000020F8BD0020024000100240881300001B
:1011B000415F00084C0000200148006870470000B3
:1011C0004C000020044805490068C968044A4905E4
:1011D000490F515CC84070474C000020001002408D
:1011E0005A5F0008044805490068C968044A890430
:1011F000490F515CC84070474C000020001002406D
:101200005A5F000810B5194AD1680C2308461840E7
:1012100004280BD0082810D00C2810D050680004E7
:10122000410F0120C003491C884010BD1068C00652
:1012300001D50F4810BD0F4810BD0F4810BD8802E2
:101240000E4B000F185C0902D368890F491CDB03A1
:1012500001D5094A05E01268D20601D5044A00E02A
:10126000044A5043FEF744FF10BD00000010024046
:1012700000093D000024F40000127A00515F0008CC
:10128000F8B504460078F24EC00749D0F068000770
:10129000800F022807D0F0680007800F032809D1CB
:1012A000F068C00306D53068800339D5606800282F
:1012B00072D035E0012160680904884202D13068AB
:1012C000084310E0052301221B0492049842306871
:1012D00002D110433060F2E7884330603068084044
:1012E0000090306890433060606800280CD0FFF7B1
:1012F000ADFC054604E0FFF7A9FC401B64287DD83F
:1013000030688003F7D50BE0FFF7A0FC054604E04A
:10131000FFF79CFC401B6428F1D830688003F7D4A9
:101320002078800741D5F0681F270007800F3F0213
:10133000012807D0F0680007800F032809D1F06862
:10134000C00306D43068400717D5E068012823D1D0
:1013500013E0E068002817D0316809229143014367
:101360003160FFF773FC054604E0FFF76FFC401B9C
:101370000228C4D830684007F7D570682169B8439F
:1013800009020843706010E0306840084000306097
:10139000FFF75CFC054605E099E0FFF757FC401BB2
:1013A0000228ACD830684007F7D42078C00676D53C
:1013B000F068A84F0007800F0BD0A06900285DD00F
:1013C0003068FF21013108433060FFF73FFC0546DC
:1013D00044E03068800502D5A069002877D0206AF3
:1013E00071683940884212D901F062FA0028AED102
:1013F0007068216AB8430843706000E0BDE070681F
:10140000217F0002000A0906084370600FE071683E
:10141000B943014371607068217F0002000A090628
:1014200008437060206A01F043FA00288FD1206AD7
:10143000410B0120C003491C8840F16809060A0FCE
:101440008549895CC840854908600020FFF756FC43
:1014500025E0FFF7FBFB401B02288AD83068800597
:10146000F7D57068216AB843084370607068217FBF
:101470000002000A09060843706010E03168FF208E
:10148000013081433160FFF7E1FB054604E0FFF7DF
:10149000DDFB401B022870D830688005F7D4207827
:1014A0006F4D000723D560690028286910D00121FD
:1014B00008432861FFF7CAFB074604E0FFF7C6FBB5
:1014C000C01B022859D828698007F7D50FE0BCE077
:1014D000400840002861FFF7B9FB074604E0FFF72A
:1014E000B5FBC01B022848D828698007F7D42078AC
:1014F000400762D500200090B06BC00006D4B06BEE
:10150000012109070843B063012000905548016894
:10151000C90510D40168821511430160FFF796FBDD
:10152000074604E0FFF792FBC01B642825D84D480E
:101530000068C005F6D5FF20A1680130814203D1C3
:1015400029690143296111E001229202002907D093
:1015500005231B02994203D1296911432961EFE751
:10156000296981432961286990432861A06800287E
:101570000ED0FFF76BFB074606E05FE0FFF766FB68
:10158000C11B3948814259D828698005F6D50CE03D
:10159000FFF75CFB074605E0FFF758FBC11B32482D
:1015A00081424BD828698005F6D40098002804D0E1
:1015B000B16B012000078143B163606A002842D00B
:1015C000F1680907890F03293FD001273F06022848
:1015D000306805D0B8433060FFF738FB04462FE091
:1015E000B8433060FFF732FB054604E0FFF72EFBFF
:1015F000401B022822D830688001F7D4E16AA06A33
:10160000F2680843216BFD231B049A4311430843EE
:10161000F060306838433060FFF718FB044604E0A0
:10162000FFF714FB001B022808D830688001F7D5AB
:1016300009E0FFF70BFB001B022801D90320F8BDCE
:1016400030688001F5D40020F8BD0120F8BD00000D
:101650000010024000E00000415F00084C00002044
:10166000401002400070004088130000FFB581B0B8
:1016700016460F46040005D025466035687A0028D6
:1016800003D007E0012005B0F0BD002028722046FD
:1016900000F012FE242068722068016849084900A1
:1016A0000160606A002802D0204601F072FB2046EB
:1016B00001F05CFC0128E6D02068816801229203D9
:1016C00011438160206881685200914339438160F1
:1016D000049970050904014320680268064B1A400A
:1016E0000A4302602068016801221143016020461C
:1016F00001F0B4FBC7E70000FFFF00FC00688900B1
:101700005030081800687047006889005030081889
:1017100002607047F8B50546044620352878012850
:1017200019D001202870022068702168CA20486200
:101730002168532048622068816801229202914307
:10174000816020688168120191438160FFF77EFA11
:10175000064600270FE00220F8BDFFF777FA811B4D
:101760007D20C000814206D92168FF204862032005
:1017700068702F70F8BD2068C0684007EDD52168FB
:10178000FF204862012068702F700020F8BD000023
:10179000F7B50546044620352878012813D00120E6
:1017A0002870022068702168CA204862216853208E
:1017B00048622068806800274005002810DAFFF79B
:1017C00045FA064608E00220FEBDFFF73FFA811BFE
:1017D0007D20C00081421BD82068C0684007F4D437
:1017E00020688268012189028A4382602068C1687A
:1017F00080221140204A8918C160FFF727FA064667
:101800000DE0FFF723FA811B7D20C000814206D93D
:101810002168FF204862032068702F70FEBD206899
:10182000C0684007EDD5216801984861206881684B
:10183000C908C900816020688168029A11438160EB
:101840000E480168012212051143016081681143AD
:1018500081602068816892111143816020688168ED
:101860001211114381602168FF20486201206870D5
:101870002F700020FEBD00007FFBFFFF0004014031
:101880000248016804221143016070470070004063
:1018900010B504460068C068400509D52046FFF72A
:1018A000EFFF2068C16880221140054A8918C16095
:1018B000012004490005486101202034607010BDFA
:1018C0007FFBFFFF0004014010B500680B46406835
:1018D000C021C94301400002000ECC04D870E40EC0
:1018E0005C708C06A40E0904490F9C701970002AC4
:1018F0000AD101F015F8D870587801F011F8587035
:10190000987801F00DF89870002010BD30B50B46A6
:101910000168896A5960016809694904490C99603C
:10192000006804680F482146014088024D04800E7B
:1019300018706D0E49065D70490E99706102490E6E
:1019400040242140D970002A0AD100F0E9FF187024
:10195000587800F0E5FF5870987800F0E1FF987033
:10196000002030BD7F7F7F0070B5040005D0254684
:1019700020356878002802D006E0012070BD0020E4
:101980002870204600F042F8022068702168CA20C2
:101990004862216853204862204600F0D4FFFF21AE
:1019A0000028206803D0416204206870E5E782685F
:1019B000154B1A408260206882686368A6691A43E2
:1019C000236933431A4382602268E068106120680B
:1019D000026923891B041A4302612068C2688023BC
:1019E0009A43C2602068C26C92089200C264E269A5
:1019F000606902432068C36C1A43C2642068416274
:101A000001206870002070BDBFFF8FFF006805498E
:101A1000884205D104480169012292041143016101
:101A2000704700000028004040100240F8B505460D
:101A30000446203528780B46012822D00120287042
:101A4000022068705878002A1DD000F069FF98784D
:101A500000F066FFD8789E7800040643587819781D
:101A600000024903084306432168CA2048622168EE
:101A700053204862204600F066FF002700282AD144
:101A800017E00220F8BDC10603D5EF2108400A3057
:101A90005870D87800F04CFF0604587800F048FFE2
:101AA00000020643987800F043FF0643187840038D
:101AB000D9E711480640206846602068C168802246
:101AC0009143C1602068806880060CD4204600F0F5
:101AD0008DF8002807D02168FF2048620420687034
:101AE0002F700120F8BD2168FF2048620120687036
:101AF0002F700020F8BD00003FFFFF00F8B506463C
:101B00000446203630780D4601280ED00120307072
:101B100002207070206800278068002A07D04006E5
:101B20001AD5287800F0FCFE17E00220F8BD400628
:101B300000D4EF70287800F0FBFE0204687800F013
:101B4000F7FE00020243A87800F0F2FE0243E878B4
:101B50000004024300920BE0EF702978A878090492
:101B600008436978EA780902120411430843009097
:101B70002168CA204862216853204862204600F04C
:101B8000E2FE00281FD1184900980840216808602B
:101B9000206881680122920491438160E968286984
:101BA000014320688268114381602068C1688022F7
:101BB0009143C1602068806880060CD4204600F004
:101BC00015F8002807D02168FF20486204207070B3
:101BD00037700120F8BD2168FF2048620120707035
:101BE00037700020F8BD00007F7F7F0070B505468C
:101BF0000068C168A0229143C160FFF727F87D26E5
:101C00000446F60006E0FFF721F8001BB04201D9B8
:101C1000032070BD2868C0688006F4D5002070BD20
:101C200070B5040006D025464035687C00260028A3
:101C300002D005E0012070BD2E74204600F02EF881
:101C40000220687420680168402291430160A16805
:101C5000606822690843E168114308436169012211
:101C60000843A169520211400843E1690843216A0F
:101C70000843A16A084321680860A0690421000C98
:101C80000840616A0843216848602168E06A086189
:101C9000666501206874002070BD000000B5006812
:101CA0000C4985B0884212D10B48416B8214114314
:101CB0004163E02000900220019000210320039066
:101CC00002910491052069460007FEF70FFF05B059
:101CD00000BD00000030014000100240FFB5054685
:101CE00004464035687C81B0012872D100293CD07F
:101CF000002A3AD0287C01286BD0012028741220B9
:101D00006874002767652163A286E286E764A7649A
:101D1000A763A787E7870126A06A7603B04207D1A9
:101D200020680168B14301602068016831430160A7
:101D30000121A068C903884205D1206801680122F9
:101D400092031143016020680168490603D40168C9
:101D5000402211430160E0680028606808D0002834
:101D600020D0E08E01281DD026E0012005B0F0BD76
:101D7000002802D0E08E012808D1206B411C21638D
:101D800021680078C860E08E401EE086E08E002862
:101D900020D0002202212046049B00F028FE0028CB
:101DA00015D1EAE7206B21680088C860206B801C91
:101DB0002063E08E401EE086E08E00280AD00022DC
:101DC00002212046049B00F012FE0028EAD00320E6
:101DD000CCE729E0A06AB04205D120680168012261
:101DE000120311430160002202212046049B00F0EF
:101DF000FEFD2026002807D1012280212046049BD9
:101E000000F0F5FD002803D0606D30436065DEE72B
:101E1000A068002803D12068C16880680090012074
:101E200068742F740020A1E702209FE70422044970
:101E30000428086902D09043086170471043FBE70B
:101E400000E000E070470000094910B5401E8842DC
:101E500001D9012010BD074C60610321081F00F06B
:101E6000B9FC0020A06107202061002010BD000007
:101E7000FFFFFF0000E000E010B5FFF7E3FF10BD3B
:101E800070B502462032137D012B1BD0012414753E
:101E90000223537503685D687026B5435D6003686F
:101EA0005D680E6835435D6003689D688026B543B4
:101EB0009D600068836849680B4383605475002007
:101EC000107570BD022070BD70B5040005D02546A8
:101ED0002035687D002802D006E0012070BD00207A
:101EE0002875204600F00AF802206875211D206838
:101EF00000F0F0FE01206875002070BD006801212F
:101F00008907884204D10348816B01221143816310
:101F100070470000001002400168CA6801231A439C
:101F2000CA60006801681943016000207047000022
:101F30000168CA6852085200CA600068016A044A0F
:101F4000114203D10168490849000160002070472F
:101F500011110000F8B5054604462035287D0128FA
:101F600017D001272F7502206875206882687726B0
:101F7000FF23B2431B029A4382600868502836D080
:101F80000EDC202856D006DC00284DD010283FD18A
:101F90004DE00220F8BD30284FD0402838D13BE03A
:101FA00060282CD0702816D001221203801A0DD080
:101FB00090422DD1CB684A688968206800F0B2FE53
:101FC000206881680122920311430EE02068816835
:101FD000C908C90009E0CB684A688968206800F030
:101FE000A1FE20688168B1433143816010E0CA6876
:101FF0004968206800F0A9FE5021206806E0CA6800
:102000004968206800F0B2FE6021206800F095FE6B
:102010006F7500202875F8BDCA684968206800F00F
:1020200094FE40212068F1E700212068EEE71021AE
:102030002068EBE720212068E8E730212068E5E709
:10204000704770B50446006801690025C9438907D7
:10205000002915DBC168C943890711D4E91E016154
:1020600001202075206880698007204602D0FFF794
:10207000E7FF04E000F078F8204600F076F82575D8
:1020800020680169C943490717D4C168C943490792
:1020900013D40421C943016102202075206880699E
:1020A0008005800F204602D0FFF7CAFF04E000F051
:1020B0005BF8204600F059F8257520680169C9438E
:1020C000090716D4C168C943090712D40821C943B6
:1020D0000161042020752068C0698007204602D075
:1020E000FFF7AEFF04E000F03FF8204600F03DF8B7
:1020F000257520680169C943C90617D4C168C94359
:10210000C90613D41021C943016108202075206835
:10211000C0698005800F204602D0FFF791FF04E0E0
:1021200000F022F8204600F020F8257520680169AB
:10213000C943C90708D1C168C943C90704D1891E69
:102140000161204600F012F820680169C943490680
:1021500009D4C168C943490605D44021C943016176
:10216000204600F004F870BD704770477047704714
:1021700070477047F8B502680446D06911680507D2
:102180002D0F07D1830605D58B0603D5204600F019
:10219000AEFEF8BD93682026002D65D0DD07ED0F5B
:1021A000FF2721370F402F435ED0C70706D0CF054A
:1021B00004D501271762E26E3A43E266820708D52A
:1021C000DA0706D0276802223A62E26E04273A4311
:1021D000E266420708D5DA0706D0236804221A62AD
:1021E000E26E02231A43E266020709D50A4632402C
:1021F0002A4305D0236808221A62E36E1343E3667C
:10220000E26E002AC5D0800604D5880602D5204695
:1022100000F06DFEE06E000703D420688068400681
:102220001CD5204600F054FE20688168490611D56F
:10223000826840218A438260606E00280AD01D496E
:102240008163606EFEF76CFB0028A2D0606E816B2C
:102250008847F8BD2046FFF78CFFF8BD2046FFF702
:1022600088FF0020E066F8BD2546C7026035002FD4
:102270000ADA5B0208D50120000510626E72AE72A8
:102280002046FFF775FFF8BD030605D50B0603D5FD
:10229000204600F067FFF8BD4006FCD54806FAD599
:1022A0001368204640218B4313606E7200F0E5F8FE
:1022B000F8BD0000BD2E000800B50068114985B0CA
:1022C00088421CD11048816B012252041143816362
:1022D0000E480090022001900020029003200390FD
:1022E00004200490052069460007FEF7FFFB00224A
:1022F00011461C20FEF73CFD1C20FEF72FFD05B00B
:1023000000BD000000440040001002400206000032
:1023100070B5034660339C7A202C44D100290BD041
:10232000002A09D0012584682D03AC4206D1066934
:10233000002E03D1CE0701D0012070BD1E7A012EE0
:1023400031D001261E724165014640310A834A831D
:10235000FF22AC4204D10469002C12D1134A10E0D0
:102360007F25002C08D00122120794420AD102696D
:10237000002A04D03F2204E00469002C01D08D83A0
:1023800000E08A830021C16622229A7219720168D4
:102390008A6832438A6000680168FF222132114353
:1023A0000160002070BD022070BD0000FF01000030
:1023B0007047FFB5074605466037787A83B00C460C
:1023C000202858D1002C0CD00598002809D00120D5
:1023D000A9680003814207D12869002804D1E007D9
:1023E00002D0012007B0F0BD387A012843D0012087
:1023F00038720020E86621207872FEF727FC0190F1
:102400002E464036059830820598708218E0708A12
:10241000401E708206980090002280212846019B71
:1024200000F0D3FE002818D10120A96800038142E2
:1024300002D12869002812D0296820788862641C9B
:10244000708A0028E3D10698009000224021284697
:10245000019B00F0BAFE002808D00320C2E72088C4
:102460002968C005C00D8862A41CE9E720207872A5
:1024700000203872B6E70220B4E77047FEE700009C
:1024800010B51078E1210901484319783C225143E5
:1024900040180849E1230A781B015A434B783C2431
:1024A00063438978D2185118884201D9401A10BD67
:1024B000002010BD841200201CB51748154901608A
:1024C0000322920742600021016404231822C3639F
:1024D000826001220261C16041620262C1620163E5
:1024E00041638161FF228163C23243618262C161C3
:1024F000FEF78AF8002800D0FEE708480090001494
:10250000019069460448FEF731F8002800D0FEE744
:102510001CBD0000002401405000002010000010ED
:10252000F0B51D4887B0C26A04210A43C262C26A7C
:102530000A400592C16A01263143C162C16A314035
:102540000591C16A02252943C162C06A0327284058
:1025500005907F030520002239460007FEF76FFB38
:102560000820002400900520019469460294000789
:10257000FEF7BCFA00956946084802950194FEF7FB
:10258000B5FA052002946946000700970196039466
:10259000FEF7ACFA07B0F0BD001002400004005096
:1025A000F0B5214C87B01F48206000212046FFF77E
:1025B000A5F81E4FB84232D01D48012646720025AC
:1025C0007F206560A06025616561A561FF20E561F0
:1025D000E0602046FFF7C8F9002800D0FEE7684613
:1025E0000570457085700395002269460E48049574
:1025F000FFF784FA002800D0FEE7684606754675A6
:102600008675C575002205A90748FFF70FFA00284F
:1026100000D0FEE73A4600210348FFF775F807B0FF
:10262000F0BD000000280040B0000020F2320000A1
:102630000000002010B50E480C490160FF21053153
:10264000416000218160C16001610122520241614B
:102650008261C16180224162026281620721C1629E
:10266000FFF7DEFA002800D0FEE710BD0030014081
:10267000D400002070B505461548416B2022114357
:1026800041631549134C7D2000220C6080018A6053
:10269000486002200A61C8600846FFF715FC002860
:1026A00000D0FEE70D48A0620D48405DE062E068A2
:1026B00001210843E06020680821084320600021D0
:1026C000162000F065F8162000F058F870BD0000E4
:1026D0000010024000140140E40100203F1F0000F0
:1026E000385F000810B50121124886B089070160E3
:1026F00000241149846041607D21C9000461C160EA
:10270000FFF7E2FB002800D0FEE701200003009065
:1027100069460848FFF71EFC002800D0FEE7049435
:1027200004A904480594FFF7ABFB002800D0FEE79E
:1027300006B010BD2C0100203F1F000010B50D4851
:102740000B490160E1214902416000218160C160C3
:1027500001618161C1610C22016242610B464162EB
:102760000A46FEF783FF002800D0FEE710BD0000F8
:10277000004400406401002070470000C106C90EFB
:1027800001208840014908607047000000E100E036
:102790008307FF22DB0E9A408907090E9940002823
:1027A0000BDA0007000F0838830808489B00181848
:1027B000C36993430B43C3617047830804489B007C
:1027C0001818036893430B430360704700ED00E063
:1027D00000E400E08307FF22DB0E9A408907090E20
:1027E000994000280BDA0007000F083883080848D2
:1027F0009B001818C36993430B43C3617047830858
:1028000004489B001818036893430B430360704708
:1028100000ED00E000E400E07047002A05D0401C15
:10282000C0B2884200D300207047002800D108467B
:10283000401EC0B2704710B50178002908D00021B1
:102840000170084600F00CF8C02000F07FFD10BDBC
:1028500001210170084600F003F8D020F5E70000E0
:10286000F8B54600B82730463843C0B200F06EFDD8
:10287000002000F06BFD0D4D00246000285C00F08E
:102880006AFD641C3D2CF8DB761C3E43F0B200F080
:102890005DFD002000F05AFD00246000285A000A67
:1028A00000F059FD641C3D2CF7DBF8BD98120020A8
:1028B00070B5174B0021DA681206120F18D19A6B07
:1028C000154CD500134A02D51268224009E09E6BD0
:1028D00001252D072E439E6312689E6B2240AE4356
:1028E0009E63A24204D103229203904200D10121AF
:1028F0000A480268520852000A4302600068C00792
:10290000C00F884201D0012070BD002070BD0000C2
:10291000001002400070004000180000002002403B
:1029200001090A2200075143000F4018C0B2704746
:10293000002102E00A38C0B2491C0A28FAD209076D
:10294000090E0843704770B505460068C16849061E
:1029500013D40021C943C160FEF778F97D260446EF
:10296000F60006E0FEF772F9001BB04201D9032021
:1029700070BD2868C0684006F4D5002070BD000016
:1029800010B50248FEF784FF10BD0000B000002023
:10299000062801D2002070470D2801D2401F02E016
:1029A000142802D20C38C0B27047742801D201201A
:1029B0007047D42801D202207047FF213531884268
:1029C00001D203207047FF219531884201D20420B3
:1029D0007047FF21F531884201D2052070479521CB
:1029E0008900884201D20620704707207047FFB552
:1029F00081B01D4616460446FEF728F931462646A4
:102A000040360746002918D03BE0681C15D0002D41
:102A100004D0FEF71BF9C01BA8420ED920684268FB
:102A2000E0218A4342601CE0206802688A43026019
:102A3000206802680A4302601CE0206881680298EE
:102A40008843E2D122E0681C1BD0002D04D0FEF7A1
:102A5000FDF8C01BA84214D920684168E0229143C8
:102A600041602068026840218A430260A06AC9016F
:102A70008842D9D00120707400203074032005B042
:102A8000F0BD2068816802988843DCD00020F6E71A
:102A900031B53223012269460948FFF71FF90122A7
:102AA000052554032D0721462846FEF7C8F80A20BD
:102AB00000F0F2FC002221462846FEF7C0F838BD9F
:102AC000D4000020704710B5FEF700F9FFF7D4F9E5
:102AD00010BD000010B5284998B008680324E4022E
:102AE000A043CA1480180860FEF756F92349086904
:102AF000A0430861062000908815029009200390E9
:102B0000102004900220099040040B900001002442
:102B10000C900A946846FEF7B3FB002800D0FEE74D
:102B20000F200D9003200E900F941094002111940B
:102B30000DA8FEF78DFA002800D0FEE722201290A3
:102B4000012000041390149412A8FEF7D1F9002874
:102B500000D0FEE7FEF730FB7D21C900FDF7C8FA83
:102B6000FFF772F90420FFF761F900221146501EA9
:102B7000FEF7FEF818B010BD007000404010024093
:102B800010480168821511430160C1680E4A114066
:102B9000C16001680D4A114001608168490849001F
:102BA000816001680122920491430160C168FD22A5
:102BB00012049143C160002101610549C00388608E
:102BC00070470000001002400C40FF88F6FFF6FE40
:102BD00000ED00E030B51A4C87B0A06B210408432B
:102BE000A063FEF7D1F8FEF7C7F8E0680121C9033A
:102BF0008843E060E06A01210843E062E06A08403F
:102C00000590E06A02252843E062E06A69462840B0
:102C100005900C48009003200190002002900520B0
:102C20000007FDF763FF69460748FDF75FFFE06AAD
:102C300040084000E062E06AA843E06207B030BDAF
:102C400000100240FFFF000000040050094908691D
:102C50004008400008610848C27F002A06D00022D0
:102C6000C2770868054A1040086070470121C175A5
:102C7000704700000008014000000020FEFF000037
:102C800010B506480168064A114001600548FFF783
:102C9000D8F905490120887010BD000000140140DA
:102CA000FEFF0000E401002000000020012080075A
:102CB000016949084900016104490A6804231A436B
:102CC0000A600168024A11400160704700700040CC
:102CD000FEFF0000F0B502680124A4070F4D104E5E
:102CE000A04203D0A84201D0B04204D113467027BD
:102CF0004A68BB431A43A04203D0A84201D0B04265
:102D000004D103231B029A43CB681A4302608A68EA
:102D1000C2620968816201214161F0BD0008014081
:102D20000014014030B58468FF252D021B021343B7
:102D3000AC430B432343836030BD826870239A43C6
:102D40000A4307210A438260704730B5036A046A68
:102D50006408640004628469F025AC4312012243D4
:102D60000A24A3430B438261036230BD30B5036A7A
:102D70001024A34303628369046A0F252D03120301
:102D8000AB431A43A0239C430901214382610162A2
:102D900030BD10B5818CC90707D001684A6801238E
:102DA0005B049A43836A1A434A60818C890707D57A
:102DB00001684A6801231B049A43C36A1A434A60A4
:102DC000818C490707D501684A6801239B049A430F
:102DD000036B1A434A60818C090707D501684A686A
:102DE0000123DB039A43436B1A434A60818CC90673
:102DF00007D501688A6801231B039A43836B1A4332
:102E00008A60818C890607D501688A6801235B0383
:102E10009A43C36B1A438A60818C490612D50168B4
:102E20004B6801221205046C934323434B60016CF1
:102E3000914207D101684A6803235B059A43436CBA
:102E40001A434A60818C090607D501684A68012344
:102E5000DB04806C9A4302434A6010BDF8B500253C
:102E60000446C566FDF7F2FE074620680068124E6C
:102E7000000709D501213B4600224905204600965E
:102E800000F0A3F900280DD12068006840070BD599
:102E900001213B46002289052046009600F095F965
:102EA000002801D00320F8BD202060346072A07299
:102EB00025720020F8BD0000FFFFFF0110B5806AF9
:102EC0000022014640314A834A82FFF752F910BD81
:102ED00001680A68FF2321339A430A6001688A68FF
:102EE000520852008A60202160308172704770B5AC
:102EF0000246403201466031938B8D7A0C46016860
:102F0000222D05D08869082210438861022070BDF7
:102F1000496A01268568360389B2B54202D105693E
:102F2000002D0BD01940436D5D1C45651970518B08
:102F3000491E0904090C518307D015E0456D19405D
:102F40002980416D891C4165F1E701680A68FF230A
:102F500021339A430A6001688A68520852008A60E5
:102F60002021A172FFF724FA002070BDFEB50446AF
:102F70002269A168E369114362691027002600688D
:102F80001A431143026835466D4B1A400A430260EA
:102F900020684168032212039143E26811434160B3
:102FA000684A2168A069914201D0226A10438A6868
:102FB0000B231B029A4302438A60634A20686349D9
:102FC00090420AD1C8680C2108402BD004282DD08B
:102FD000082829D00C2810D10EE05A4A90420CD172
:102FE000C8680321890208401CD01115401A1DD061
:102FF000401A19D0884200D108270220FDF7EEFEC2
:103000000190504B514922684039D81300929A429E
:1030100035D1002F0CD0022F0DD0042F12D0082F45
:103020001CD113E00027E8E70227E6E70427E4E7DE
:10303000FEF7C8F808E00868C00601D5444805E076
:10304000444803E0FEF7DEF8002873D062685100C0
:103050005118814202D81103814201D2012569E051
:10306000010E06025008002330185941FDF756F8AA
:1030700003210902384A411A914259D9EEE7E2691F
:1030800082422DD13B0000F09FF90906080B24195C
:103090002424241F2400019812E0FEF7A3F80FE077
:1030A00008686168C00602D548082C4A01E02C4A2D
:1030B00048088018FDF71CF886B20BE0FEF7A2F86E
:1030C000616840004A08F4E7616801224808120478
:1030D000EFE70125310909013007400F084327E0D8
:1030E0003B0000F071F909070A0D061D06060629C6
:1030F0000600B3E7FEF766F814E0FEF773F811E098
:1031000008686168C00602D54A08114801E0114804
:103110004A081018FCF7ECFF81B20098C16009E082
:10312000FEF770F861684A088018FCF7E1FF80B28A
:103130002168C8602846FEBD61684A08E9E70000CA
:10314000F369FFEF00480040004400404010024097
:1031500000093D000024F400FFFC0F0000127A007B
:103160000048E8016921095C212901D0022070474B
:10317000014640314A8A002A12D0012382681B038B
:103180009A4202D10269002A15D0C26C531CC36452
:10319000006812788262488A401E48820020704788
:1031A00001680A6880239A430A6000680168402227
:1031B00011430160F2E7C26C03681288D205D20D98
:1031C0009A62C26C921CC264E5E7FFB581B01E46EC
:1031D000174605460A9C1CE0601C1AD0002C04D03F
:1031E000FDF734FD801BA04213D928680168FF2237
:1031F000A1329143016028688168490849008160D3
:10320000202060356872A87200202872032005B063
:10321000F0BD2868C1690298884304D00020B842F4
:10322000DAD00020F3E70120F9E7000010B50D49DE
:10323000C869800612D50C4802680C4B1A4002601F
:10324000002242624A6A0B49094B0C7A1A550A7AE3
:10325000521C0A7201680122114301600648FEF700
:1032600089FF10BD0044004000140140FEFF000033
:1032700074050020200000206401002010B50E49D4
:103280000C4A0A600D4A800010584860002088608F
:10329000C86008618861C8610C2208624A6148629E
:1032A0000346024601460448FEF7E0F9002800D034
:1032B000FEE710BD0044004064010020145F0008D8
:1032C00038B57D20C000FDF777FBFFF703FC02F067
:1032D000B8F8002000F0C8F8022000F0C5F8FDF7AB
:1032E00019F81348FEF716FA124C0125E07A09285E
:1032F00002D0A16B002900D1E573002812D10EA1E4
:103300000EA002F07BF9002000900E480023C17847
:103310008078012201F0DEFF0B4840782074E07ACB
:10332000002804D0C0B2112801D0E573E57238BD81
:10333000B00000200000002000000000C0DDD0C070
:10334000D6C8DF00540200208412002010B50021EE
:1033500000F006F810BD10B5012100F001F810BD15
:1033600073B50C463223012269461648FEF7B6FCB7
:1033700001F076FE05252D07002C01D0012200E08A
:10338000002280212846FDF75AFC042000F090F826
:103390000122940321462846FDF751FC142000F039
:1033A00087F8002221462846FDF749FC7D20C00011
:1033B00000F07EF8002280212846FDF740FC01F055
:1033C0005FFE7CBDD400002030B47446641E2578B6
:1033D000641CAB4200D21D46635D5B00E31830BC49
:1033E000184702E008C8121F08C1002AFAD1704726
:1033F0007047002001E001C1121F002AFBD1704775
:10340000002908D0012909D002290AD003290BD0AC
:1034100004290CD00DE0F72820D30AE009281DD399
:1034200007E018281AD304E03C2817D301E0072846
:1034300014D38A1F072A01D202280FD30A460D3A55
:10344000072A01D2192809D30A461523143A5B0129
:103450009A4207D2C90703D03C2803D20120704703
:103460001828FBD300207047F8B5B8270546861CFE
:103470000FE028463843C0B2FFF768FF0020FFF78F
:1034800065FF00240020FFF766FF641C3D2CF9DB7C
:103490006D1CB542EDDBF8BD08B5002100910A2195
:1034A0004843009901E0491C00918842FBD108BDC6
:1034B00008B500210091814201D0491CFAE708BDFE
:1034C000C11E022902D9C01F082801D80120704757
:1034D00000207047FEB0FDF701FCFFF7FBFAFFF795
:1034E00079FBFE48C16A01252943C162C06A0024F4
:1034F00028400090FA48789003207990052078A918
:103500007A940007FDF7F2FAFFF70AF8FFF716F9C9
:10351000FFF7E8F8FFF744F8FFF78CF8FEF7CCFF69
:10352000F149F048086006204860F048C8608860AB
:103530000846FDF791FB002800D0FEE701F09EFF52
:1035400003210520002249030007FDF778FBE64828
:10355000FDF7B4FB0020FFF79BFAFF20F530FDF7E5
:103560002BFA01F0EDFF02F01BF8DF49F720803164
:10357000087002204870012008718C70CC70062001
:10358000D94A002180321154401CAF2180B28900F9
:103590008842F5D3D64800685E9000287ED0401C53
:1035A000FCD05E981146000A08705E9848700023AF
:1035B0005EAE0020CF4D1C0281000A19521912681C
:1035C000401C80B272501928F6D35E98CA49020E88
:1035D000FF208930584345182846FF308130446821
:1035E00022705E9A0068120C0270012081007258ED
:1035F0000101691880390F6F140E3C704F6F140C65
:103600003C708F6F140A3C70C96F401C80B20A7006
:103610001928EBD35B1C9BB2072BCAD3B24C803466
:103620006078FFF727F86078FFF728FEAE48FDF7CF
:1036300045FB01F006FF0020FFF716FF0220FFF711
:1036400013FFFCF767FEAD4C0120E0730025FF205F
:103650006576F530FDF7B0F9002211460220FDF73E
:1036600087FB0220FDF77AFBA548FDF72BF9002127
:103670001C20FFF78DF81C20FFF780F89A4E703E53
:103680003068026820273A430260257064230522CF
:103690009C493046FEF78DFE0F2200E020E099495C
:1036A0003046FEF735FE0120E07220348E48FDF7EB
:1036B00005FB00211C20FFF76BF81C20FFF75EF8CC
:1036C000894870380068016820221143016005278D
:1036D0003F0708213846FDF7ADFA884E307046E0C6
:1036E0000020FCF7E7FE0120FCF7E4FE0220FCF7D7
:1036F000E1FE0320FCF7DEFE0420FCF7DBFE0520E4
:10370000FCF7D8FE0620FCF7D5FEFCF7AFFE4EE72F
:103710007548FDF7D3FA2078002802D025700020E4
:1037200007E0774801216030FDF7E8FF80B21E28EE
:1037300006D2401C82B2724801216030FDF7E4FFDE
:103740006F487D21002209016030FEF721F86348AF
:10375000816B02041143816301210846FDF724FBBC
:1037600008213846FDF766FA307001207070307815
:103770000028CDD07078002813D061487570603073
:10378000FDF7C8FFFFF79CFD0120207001465C4853
:103790006030FDF7B3FF5A48002201216030FDF789
:1037A000B3FF5148FDF78AFA607800280DD05648DB
:1037B000A1788078884208D0A070E078401CE07042
:1037C000E078132801D901203076012080070168B4
:1037D000434A521E11400160307D37460028F07A7E
:1037E00004D0002831D0112802D046E000282CD087
:1037F0003D488030457164214148FDF703F8404859
:10380000FCF7FEFE80B27790F87A3E46002808D09A
:10381000112806D0B87ADF210840B072B07AFFF7DD
:1038200037F9607A7799814201D001213172317A7A
:10383000002922D00121F174B574B279002A09D08F
:1038400077986072B571F5710EE0274901208031DB
:103850004871D0E7779A831C9A4212D2801E824226
:103860000FDB7079401C707170790A2805D9757169
:1038700077986072F1713572B171787F002802D04B
:103880001AE07571F8E71D491D4800223C3160308F
:10389000FEF71AF81A4800221B496030FEF736F886
:1038A000194911480A78803082704978C1701349EB
:1038B0003C310978491E01711048C07A142869D03A
:1038C000002866D00D483C300178FF208930414304
:1038D000094809180E46FF3E893E17E000100240D5
:1038E000FFFF000000300040D4010020FF0F000067
:1038F0000078000800700008CC07002000000020BD
:1039000050000020A006002084120020FF39FF2272
:10391000793979326846FCF731FC0C20301801788F
:1039200037790B46417809020B438178C078090446
:103930000B43000603430820301801780A464178FB
:1039400009020A438178C07809040A433946777925
:1039500000063F023943B77902433F04F079394307
:10396000000637780143384677783F023843B77806
:10397000F6783F0438433606304301F0ADFDF9498F
:103980000871CA7A002A68D0002866D0887F00288B
:1039900011D062E0F448F34980784A7C904291D09B
:1039A000E279002A01D0E57101E00122E2710122F1
:1039B000CA73487486E7487F00284ED1E948E94930
:1039C000C5720120C8733D2008744874FCF7A2FC3E
:1039D000E448FF213C30007889314843E3494118ED
:1039E000E048007900010818FF380C219938411887
:1039F0000A78077913464A78120213438A78C978FD
:103A00001204134309060B43082141180E7832466D
:103A10004E78360232438E78C9783604324309062E
:103A20000A4339464779C6793F02394387793606D2
:103A30003F043943314306463778384677783F02AA
:103A40003843B778F6783F04384336063043FEF7FC
:103A500017FDC44988630120C874C248C079002892
:103A600038D0C04EF07A002877980FD00B38042851
:103A700043D2FF209130FFF70FFDA07A002839D004
:103A8000F07D002875D00120607364E018380328A9
:103A9000207C28D200281ED0F07D0028E0D0B44839
:103AA000FEF746FAB563B576B14AFF213832107990
:103AB00089314843AD494018FF3081304068057076
:103AC0001079401CB07725747575002232213120A1
:103AD00001F0F6FA55E201202074A6484562A44898
:103AE000FEF71AFA4DE20028F4D02574A048FEF73C
:103AF0001FFA46E20120A07218E0779814380428D3
:103B000016D2FF209130FFF7C7FCE07A00280BD0D7
:103B1000F07D00282DD00120A0739548FEF708FA0B
:103B20009548FFF7B9FC24E00120E072A57419E084
:103B30007798001F042820D2FF209130FFF7ACFCBB
:103B4000207B00280BD0F07D002812D00120E073EC
:103B50008948FFF7A1FC8648FEF7EAF909E0A57459
:103B600001202073834845628148FEF7D5F96570CE
:103B7000B573707B00280BD003E20120A074717B29
:103B80003046002907D04573A5726573C57502E0FC
:103B9000A07C002805D0E07A217B0843A17A084365
:103BA00008D1A07B002805D1E07B002802D1607BF2
:103BB00000288FD068460570607B002804D06846D6
:103BC00005700120707319E0A07B002801D004204B
:103BD00012E0E07B002801D005200DE0A07A00284B
:103BE00001D0012008E0E07A002801D0022003E0A3
:103BF000207B002802D0032069460870FCF78AFB6E
:103C0000F17A06205D4A4843801831736A4612787B
:103C1000805CF0720122F27307280CD10A290AD0C5
:103C20002179FF2289325143504A8918FF3181316D
:103C3000096809786171617B00290BD0FFF740FCAE
:103C4000002807D0012037467075B075FCF7FEFFDD
:103C5000786400E075754348C07A092823D1684626
:103C6000007800281FD12179FF20893041433F4847
:103C70000918FF31813149680978002909D0217973
:103C8000FF22893251430818FF30813040680570A7
:103C900009E022790121FF2389335A431018FF30AC
:103CA00081304068017068460078012837D968463D
:103CB0000078062833D22B4EF07AC01E0300FFF79F
:103CC00083FB160C17222F632E2E2E6B95B2CFF08E
:103CD0002E2E2EEE2E2E2EEDEC2EE27AA07B244BF5
:103CE0000243383318790721FEF797FD187114E065
:103CF000E27AA07B1E4B0243383398781821FEF7F6
:103D00008CFD987009E0E27AA07B194B02433833AE
:103D1000D8783C21FEF781FDD87001207077F9E05A
:103D2000307B02280AD010280AD068460078022882
:103D300009D06846007803280ED0EBE02571E9E051
:103D400006202071E6E02079401C207120790628A9
:103D500019D92571102015E02079002810D020797C
:103D6000401EEEE70000002084120020CC07002057
:103D70001C02002000080140D02000007C560008F2
:103D800025710220F072C5E0E27AA07B192102437E
:103D90006079FEF742FD24E0E27AA07B02432079BD
:103DA000FF218931F84B4843C018FF30813000684B
:103DB0000078401CC1B26079FEF72FFD6071607918
:103DC00000280FD1E07AA17B084301D0012008E050
:103DD0002079FF2189314843C018FF3081300068C5
:103DE000007860712079401CB07793E02079FF2142
:103DF00089314843E44B6179C01809014018803883
:103E0000E27AA17B006F0A4300781821FEF705FDD6
:103E10002179FF22893251436279C9181201891828
:103E20008039096F59E02079FF2189314843D64B09
:103E30006179C018090140188038E27AA17B406F8F
:103E40000A4300783C21FEF7E8FC2179FF22893201
:103E500051436279C918120189188039496F3CE0D1
:103E60002079FF2189314843C74B6179C018090186
:103E700040188038E27AA17B806F0A4300781821CD
:103E8000FEF7CBFC2179FF22893251436279C918B0
:103E9000120189188039896F1FE032E027E01EE0A7
:103EA000FFE72079FF2189314843B74B6179C0187A
:103EB000090140188038E27AA17BC06F0A4300787C
:103EC0003C21FEF7AAFC2179FF2289325143627915
:103ED000C918120189188039C96F087082E7E27A1F
:103EE000A07B092102432079FEF797FC29E7E27ABB
:103EF000A07BA64B02431878F721FEF78EFC1870C2
:103F000008E0E27AA07BA14B024358780921FEF732
:103F100084FC58709D483838FEF70AF89C4E3D20C6
:103F20003074B07F002802D0B07FF076B577707F14
:103F300000281AD07577954F954938793C31401C47
:103F4000887007224A701322CA70087000229148B4
:103F5000FDF76CFD9048B9780170F9784170857073
:103F6000014600228B48FDF7C9FD0120B073A07CFB
:103F7000002806D0E5722573A572A573E5736573F5
:103F8000F5758348C07A0300FFF71EFA190E5C84AA
:103F900098C9FDFCFBFAF9F8F7F6F5F4F3F2F1F045
:103FA000EFEEEDECEBEA5B00794EF07B002811D0F0
:103FB0007AA17BA001F022FBF573B07A202108439F
:103FC000B072B07AFEF764FD65703046B573263086
:103FD000FEF731FC704F717CB878884225D0B07AFA
:103FE00020210843B0720120FFF756FAB07AFEF79D
:103FF0004FFD6AA16CA001F001FB64480095C178F7
:1040000080781923002201F065F90023B06B1A466D
:104010000121401E01F0BDF9B06B401EB063B878BD
:1040200070745B482630FEF706FCB06B002808D1A0
:1040300001203076B07ADF210840B072B07AFEF706
:1040400027FD91E3524EF07B002821D0F57300202C
:10405000FFF70AFAFCF75EF955A158A001F0CEFA75
:104060002E210022084601F02BF800222A214D20A3
:1040700001F026F800223221522001F021F800221E
:104080003821552001F01CF830462630FEF7D3FBCE
:104090003576D6E73E4EF07B0028D2D049A14BA022
:1040A00001F0ACFAF573394E002330792822194615
:1040B00001F060F80095F178B07890E0344EF07B34
:1040C00000280CD03FA141A001F098FA2F4800959C
:1040D000C17880782323012201F0FCF8F5730127D1
:1040E0007777FCF7B3FD3064716C411AFA2901D976
:1040F00077757064707D0028A3D07575B07D002839
:1041000004D0B57521480123007903E0B7751F4835
:10411000002300792822002101F02CF8FDE31C4F38
:10412000F87B00280BD027A128A001F067FA1748D8
:10413000002300792822194601F01CF8FD7301269E
:104140007E77FCF783FD3864796C411AFA2901D92E
:104150007E757864787D00289BD07D75B87D37E0CA
:10416000F2E3F2E3F2E3F2E3F2E3F2E3DBE3AFE301
:10417000A7E347E3FCE29DE2FFE19BE14FE112E1AF
:10418000CCE082E05DE02FE0CC070020540200206C
:1041900000000020B0000020841200200000000079
:1041A000C0DDD0C0D6C8DF00C0DDD0CE000000002A
:1041B0004145524F2076312E304C00004156544F2D
:1041C0004B4F5200C2D0C5CCDF000000D3D1D2008B
:1041D000002802D0BD7500962FE0BE752CE0232389
:1041E000012201F077F899E7FE4EF07B00280CD011
:1041F000FD490846083001F001FAFC480023007927
:104200002822194600F0B6FFF57301277777FCF7EF
:104210001DFD3064716C411AFA2901D977757064FB
:10422000707D002898D07575B07D002803D0B575D5
:104230000220009001E0B7750095EC48C1788078C5
:10424000CDE7E848C17B002986D0C57300231A4614
:104250001946207900F08EFF20790023401CC0B25F
:104260001422194600F086FF20790023801CC0B27A
:104270002822194600F07EFF01220021032000F0D1
:104280001FFF0122062103208AE0D64EF07B002882
:1042900018D0F5732079FF2189314843D44940185B
:1042A000FF30813040680078002801D0D1A100E0C3
:1042B000D3A1D6A001F0A2F900231A46194620790D
:1042C00000F058FFFCF7C2FC3064716C411AFA2907
:1042D00002D9012171757064707D0028A2D07575B6
:1042E000B07D002802D0B575012302E00120B07531
:1042F00000232A220021607900F010FFB9482630FF
:10430000FEF799FA62792179FF2089304143B84854
:104310000818FF3081300068027025E2B14EF07B52
:10432000002822D0F573BCA1002000F077FE207990
:10433000FF2189314843AE494018FF308130406841
:104340000078002801D0ABA100E0ADA1012000F071
:1043500065FE00232A221946607900F0DFFE002363
:104360001A461946207900F005FFFCF76FFC30640F
:10437000716C411AFA2902D9012171757064707D3E
:104380000028CAD07575B07D002804D0B57500220C
:1043900036213E2004E00120B0750022362110466F
:1043A00000F08EFEE2E38F4EF07B002810D0F57314
:1043B00096A1002000F032FE00232A2219466079DF
:1043C00000F0ACFE00231A461946207900F0D2FE18
:1043D000FCF73CFC3064716C411AFA2902D90121C6
:1043E00071757064707D002897D07575B07D002858
:1043F00011D0B5752079FF21893148437C49401897
:10440000FF3081304068007800284FD079A101202A
:1044100000F004FEAAE30120B07582A1F7E7714E17
:10442000F07B002821D0F57378A1002000F0F6FD84
:104430002079FF21893148436D494018FF30813090
:104440004068002801D06BA100E06DA16FA001F0D1
:10445000D5F800232A221946607900F05FFE002378
:104460001A461946207900F085FEFCF7EFFB306410
:10447000716C411AFA2902D9012171757064707D3D
:104480000028B1D07575B07D0028B2D10120B0757B
:104490002079FF218931484355494018FF30813048
:1044A00040680078002803D061A1B0E754A1AEE7CE
:1044B00062A1ACE74B48C07B002842D04948C57395
:1044C00061A163A001F09AF800231A4619462079E9
:1044D00000F050FE00952079FF2189314843444E79
:1044E00061798019090140188038406F017820797E
:1044F000FF22893250436279801912018018803876
:10450000006F1E230078002200F0E4FE0095207961
:10451000FF218931484361798019090140188038A9
:10452000C06F01782079FF22893250436279801967
:10453000120180188038806F1E230078012200F05D
:10454000C9FEFCF783FB274908644A6C821AFA2AE1
:1045500002D901224A754864487D002891D04D75E2
:10456000887D002802D08D75012302E00120887526
:104570000023002201216079F6E21A4EF07B002828
:104580002CD0F57330A132A001F038F800231A4680
:104590001946207900F0EEFD00231A4601216079CA
:1045A00000F0BCFD00952179FF208930414310487F
:1045B00062790918120189188039C96F227909783E
:1045C000FF2389335A43101862791E231201801881
:1045D0008038806F0122007800F07CFEFCF736FB0B
:1045E000306439E000000020C4410008540200207B
:1045F000CC070020C2CACB20202020C2DBD500007F
:10460000C2DBCACB202020C2DBD50000202020CA7C
:10461000CECB2020203E0000202020CACECB202060
:104620002020000020202020202020C2DBD50000F8
:10463000C2CACB202020202020200000C2DBCACB11
:104640002020202020200000202020C4CE000000B8
:10465000202020CED2000000716C411AFA2902D924
:10466000012171757064707D00287DD07575B07DF5
:10467000002802D0B575012061E00120B0750095D9
:104680002079FF2189314843F74A6179801809016F
:1046900040188038406F01782079FF2389335843D0
:1046A000801862791E23120180188038006F002262
:1046B000007896E5ED4EF07B00282DD0F573EC499F
:1046C0000846083000F09AFF00231A461946207960
:1046D00000F050FD00231A460121607900F01EFD14
:1046E00000952079FF2189314843DF4A617980189C
:1046F000090140188038C06F01782079FF23893381
:104700005843801862791E23120180188038806F08
:104710000122007800F0DEFDFCF798FA3064716C3D
:10472000411AFA2902D9012171757064707D00283F
:104730009BD07575B07D002803D0B5750220009020
:1047400002E00120B07500952179FF2089304143B6
:10475000C54862790918120189188039496F227990
:104760000978FF23893300E0DCE05A43101898E70A
:10477000BE4EF07B00282DD0F573BD4908460830A9
:1047800000F03CFF00231A461946207900F0F2FCA5
:1047900000231A460121607900F0C0FC00952179C0
:1047A000FF2089304143B048627909181201891805
:1047B0008039496F22790978FF2389335A431018C9
:1047C00062791E23120180188038006F0022007861
:1047D00000F080FDFCF73AFA3064716C411AFA2956
:1047E00002D9012171757064707D0028A0D07575A3
:1047F000B07D002802D0B575012048E00120B075D9
:10480000009545E0994EF07B00282DD0F57398492E
:104810000846083000F0F2FE00231A4619462079B7
:1048200000F0A8FC00231A460121607900F076FC14
:1048300000952079FF21893148438B4A617980189E
:10484000090140188038406F01782079FF238933AF
:104850005843801862791E23120180188038006F37
:104860000022007800F036FDFCF7F0F93064716C3E
:10487000411AFA2902D9012171757064707D0028EE
:10488000B4D07575B07D0028B8D0B5750220009001
:104890002179FF2089304143734862790918120158
:1048A00089188039C96F22790978FF2389335A43DF
:1048B00010186279120180188038806F1E230078EA
:1048C0008EE46A4EF07B002890D06AA16AA030E0A6
:1048D000664EF07B002802D1707D002812D069A1BD
:1048E00065A000F08BFEF5737575B07A2021084342
:1048F000B072B07AFEF7CCF865705C48B5732630BC
:10490000FDF799FF614F717CB87888420AD0B07A80
:1049100020210843B072B07A00E027E1FEF7B8F832
:10492000B878707426E1514EF07B00287ED051A1FA
:1049300057A000F063FEF573B07ADF210840B07233
:10494000B07AFEF7A5F811E15AE1C0E0B5E053E016
:1049500010E0FFE7454EF07B002867D045A14CA052
:1049600000F04CFEF57300231A460121207900F077
:1049700047FCFBE03D48C07B002857D0464E002353
:1049800030791A46012100F0F5FBB0780A21FBF7D7
:10499000AFFB3030C0B20122222100F091FBB07891
:1049A0000A21FBF7A5FB084630300122282100F040
:1049B00087FBE079002803D001222D213A2002E074
:1049C00001222D21104600F07BFBF0780A21FBF735
:1049D0008FFB3030C0B20122312100F071FBF07842
:1049E0000A21FBF785FB084630300122372100F011
:1049F00067FB1E48C573B9E01C4FF87B002824D024
:104A00002079082824D01BA124A000F0F7FD002362
:104A10001A460121207900F0F3FB38462630FDF7D5
:104A20000AFF207906283FD9002600E0A2E03046A0
:104A3000FBF758FC3046FBF73DFD761CF6B2072E1F
:104A4000F3D3FF209130FBF7B7FF1320F87291E00A
:104A500000231A460121207900F0D2FB03482630BA
:104A6000FDF7E9FEEDE70000CC0700200000002084
:104A70004846000800000000D0D3D7CDCEC520C2E4
:104A8000CACB0000C0CAD2C8C2CDCE00841200205A
:104A9000D1C1D0CED100000054020020C8C445547A
:104AA00020D1C1D0CE4300002079FBF71BFC207938
:104AB000FBF700FD19204001C5E7F448C17B002940
:104AC00058D0C573F2A1F4A000F098FD4EE0EF4E6F
:104AD000F07B002828D001203077F5730020FEF706
:104AE000C3FCF0A1002000F099FAF04840780300E0
:104AF000FEF76AFC0906080A0C0E101214163100A3
:104B0000EBA10EE0EDA10CE0EFA10AE0F1A108E0BD
:104B1000F3A106E0F5A104E0F7A102E0F9A100E0AD
:104B2000FBA1012000F07AFAFCF790F83064716C78
:104B3000411AFA2902D9012171757064707D00282B
:104B400018D07575B07D002807D0B575F07A0309C7
:104B5000D648007806E0F1A1E3E70120B075D3481C
:104B6000002300782422002100F0D8FAC74826301C
:104B7000FDF761FEC548817B002906D0EA498978A6
:104B8000A17001216170E5708573817C002901D0DD
:104B90008574C574BD48007E002827D0BB4EB07A0E
:104BA000DF210840B072B07AFDF772FF2571FBF784
:104BB000B1FB1420F0720127F7736570E57035764C
:104BC000F5753D2030747074707F00280CD07577B7
:104BD000B64AD54891780170D17841708570014608
:104BE0000022D248FCF78AFF6570B774A74EB07FE9
:104BF000002874D0F07AFEF763FC00286CD06EE0D9
:104C0000A24EF07B00282FD001203077F070F57392
:104C10000020FEF729FCA3A1002000F0FFF9A34F1C
:104C2000002338782422194600F078FA78780300B7
:104C3000FEF7CAFB0906080A0C0E101214162F0004
:104C40009BA10EE09DA10CE09FA10AE0A1A108E0BC
:104C5000A3A106E0A5A104E0A7A102E0A9A100E0AC
:104C6000ABA1012000F0DAF9FBF7F0FF3064716CC2
:104C7000411AFA2902D9012171757064707D0028EA
:104C800000D177E77575B07D002804D0B575A8A16F
:104C90000BE4A2A1E5E70120B07584484078030049
:104CA000FEF792FB0906080A0C0E101214161800E3
:104CB0007FA1EDE781A1EBE783A1E9E785A1E7E724
:104CC00087A1E5E789A1E3E78BA1E1E78DA1DFE714
:104CD0008FA1DDE791A1DBE7B07FF076B577F07EBD
:104CE000002807D0F07E401EC0B2FBF7E3FBF5764C
:104CF0000120F073307F002809D0F07A172806D001
:104D0000182804D0FBF7B2FB35770121F173F07856
:104D1000002807D0F570654F7878FEF7AFFA7878FD
:104D2000FDF7A8FCB078002801D1FEF7BFFC0020F9
:104D30000090B570814F5D483978007881427DD10F
:104D4000217A3846FBF7AAFA00045049000C8886FD
:104D500074D17878032809D006283BD078493A786E
:104D60000A70803048700120887020E1B878019086
:104D700000282AD1F8787A79844683183879010294
:104D8000491E5B18AF2189008B421EDA02281CD213
:104D90006B49387808700320487050008870434E83
:104DA000019B0020B4441F0208E061463B18CB5C25
:104DB0006349460071180B71CD70401C8242F4DCCF
:104DC0005F488078C01CC6B204E15D483978017044
:104DD0008321E9E0B878F97803028C4659188EB23D
:104DE000AD2189008E424ED2387900284CD1787995
:104DF0003146FEF705FB002846D02C4978798855C6
:104E0000012E20D0022E23D0032E21D0052E2BD010
:104E100004D93046FDF7BCFD1C49C8761B48857691
:104E20000121C17346483A78027006224270BA786E
:104E30008270FA78C2703A79027100E0E5E079791F
:104E400041710626C6E0114A0121D1700090E5E7C4
:104E500035488A780270C978417085700146002211
:104E60003248FCF74BFED9E708790849401C3C3131
:104E7000887007224A701322CA70087000222B48DB
:104E8000FCF7D4FDCAE764E05CE00000000000200D
:104E90004D4F444255530000CFC0D0C0CCC5D2D0F6
:104EA000DB000000E0E4F0E5F10000005402002027
:104EB000F1EAF0202020323430300000F1EAF02016
:104EC0002020343830300000F1EAF020202039363C
:104ED00030300000F1EAF02020313434303000006E
:104EE000F1EAF0202031393230300000F1EAF020D0
:104EF0002033383430300000F1EAF02020353630ED
:104F000030300000F1EAF020203537363030000034
:104F1000F1EAF0203131353230300000F1EAF06F43
:104F2000313135323030000084120020B0000020D2
:104F3000F1EAF0202020202020200000740500202D
:104F4000A0060020324839780170162141700321F3
:104F50002CE0012802D0022819D021E06146012965
:104F60001ED13A79002A1BD17979022918D2284B0F
:104F70003E781E7006265E7098706046D8701A7172
:104F8000597124480121C1731821C17222E0614680
:104F9000002905D13A79002A02D17979002908D06F
:104FA0001B48397801701621417002218170032657
:104FB00010E0174B3E781E7006265E7098706046B3
:104FC000D8701A71597113490120C8756074C8737B
:104FD0001820C87231460E48FBF760F90D4F0C4996
:104FE000B8868855000A891948706423B21C08499C
:104FF0000948FDF7DEF9F878002806D0FD70009822
:10500000FEF73CF90098FDF735FB25728DE60000B0
:10501000A00600200000002064010020F8B506462C
:105020000F460846FBF7BCF8C5B2002408E021464D
:1050300006204143385D324600F042F8641CE4B279
:10504000AC42F4D32C4608E02146062041433246C8
:10505000002000F035F8641CE4B20A2CF4D3F8BD4B
:1050600000B585B0802000900120019000200390C1
:105070000290052069460007FBF738FD05B000BD2A
:1050800000B585B08020009002200190002103200F
:10509000039002910491052069460007FBF726FD65
:1050A00005B000BD70B5044616460D46007800F008
:1050B00007F860783246A91D00F002F870BD0000C4
:1050C000F0B506235843134B134EC4188B1D002A0A
:1050D00001D0C8B219E0C8B209E0421AA55C42008A
:1050E000B75A3F0A3F02ED19401CB552C0B23E28E4
:1050F00001D29842F1DBF0BD421AA25C15024200D7
:10510000B75CED19401CB552C0B23E28F3D29842AC
:10511000F2DBF0BD125700089812002070B514465B
:105120000D460646002B0AD0012B21D10A46214606
:105130000120FFF7C5FFA11D2A46012016E0092E18
:1051400007D90A21FAF7D4FF3030C0B22A462146E7
:1051500002E00A4621460120FFF7B2FF0A2130464D
:10516000FAF7C6FF084630302A46A11DFFF7A8FF10
:1051700070BD000030B514460D46002B0AD00A461B
:1051800021460120FFF79CFF2A46A11D0120FFF7C1
:1051900097FF30BD0300FEF717F907060A10141831
:1051A0001C200500EBE70A4621460EA002E00A4655
:1051B00021460DA0FFF776FF30BD0A4621460BA021
:1051C000F8E70A4621460AA0F4E70A46214609A064
:1051D000F0E70A46214608A0ECE70A46214607A068
:1051E000E8E70000CFCD0000C2D20000D1D000001F
:1051F000D7D20000CFD20000D1C10000C2D1000040
:1052000070B514460E46002B0AD00A4621460120EE
:10521000FFF756FF3246A11D0120FFF751FF70BD79
:1052200025460C350300FEF7CFF809070B111519B9
:105230001D21252E0600E8E70A46214619A002E0B6
:105240000A46214618A0FFF72DFF70BD0A462146E9
:1052500016A0F8E70A46214615A0F4E70A462146BB
:1052600014A0F0E70A46214613A0ECE70A462146BF
:1052700012A0E8E70A46214611A0FFF713FF3246C5
:10528000294610A0DFE70A4621460FA0FFF70AFFD4
:10529000324629460DA0FFF705FF21463246183158
:1052A0000BA0D0E7CFCD0000C2D20000D1D00000CB
:1052B000D7D20000CFD20000D1C10000C2D100007F
:1052C000214200004345000042DB0000D5CE000033
:1052D000C4000000FFB51F4681B00B373E1D0A9980
:1052E000B51D1C46002925D0012933D002291FD124
:1052F0000A21FAF7FDFE30300091C0B22146039A30
:10530000FFF7DEFE0099039A08463030A11DFFF733
:10531000D7FE39463A20039AFFF7D2FE31460120E4
:10532000039AFFF7CDFE29460120039AFFF7C8FE36
:1053300005B0F0BD0A21FAF7DBFE30300091C0B2B3
:105340002146039AFFF7BCFE0099039A08463030C5
:10535000A11D07E019460120039AFFF7B1FEA11D28
:105360000120039AFFF7ACFE39463A20039AFFF773
:10537000A7FE0A210298FAF7BBFE0C463030C0B2F5
:105380003146039AFFF79CFE204630302946039AA7
:10539000CCE7FFB5E12181B0144605460901FAF7D3
:1053A000A7FEC7B208463C21FAF7A2FEC6B23C21CE
:1053B0002846FAF79DFE0D460A213846FAF798FE70
:1053C0000F463030C0B22146029AFFF779FE3846C8
:1053D0003030A11D029AFFF773FE21460B313A20AF
:1053E000029AFFF76DFE0A213046FAF781FE0E465B
:1053F00030302146C0B20F31029AFFF761FE3046CD
:10540000214630301531029AFFF75AFE21461B31F2
:105410003A20029AFFF754FE0A212846FAF768FE5E
:105420000D4630302146C0B21E31029AFFF748FEC9
:105430002846214630302431029AFFF741FE05B05C
:10544000F0BD10B56420FEF733F80220FBF7B4FA84
:10545000E220FDF77BFFEE20FDF778FFA420FDF7AB
:1054600075FFA820FDF772FFC020FDF76FFFA02099
:10547000FDF76CFFAF20FDF769FF10BDF0B5144FCD
:105480000021FF2089300C46444312487A18241822
:105490002046FF30931D81300D320CC00020602269
:1054A0000E46564382009219D2191546030114354F
:1054B000E5506D1CE3185D606D1C1732401C9D604B
:1054C000DA601828EEDB491C0729DADBF0BD0000A2
:1054D00054020020CC0700200FB470B56598007806
:1054E000012828D1154A3C231178527800205943CD
:1054F0008A18649904AD0C781BE001016B583C26B6
:105500001B78491973434E6836789B1993420ED81D
:105510008B68C9681B783C260978734359189142F7
:1055200005D9401CC0B270BC08BC04B01847401C70
:10553000C0B28442E1D80020F5E7000084120020C8
:1055400070B51248416B0422114341631148002198
:10555000124D81600E4CC5600F4E016150C008387D
:10556000FCF7B2FC002800D0FEE7A662E562E06826
:1055700001210843E0602068082210432060206871
:10558000084320601420FDF7F9F870BD00100240B8
:10559000000801401C0200203F1F0000DC05000045
:1055A00070B51349886B0125284388638C04114822
:1055B0000021C8228160C2600F4E016150C00838CE
:1055C000FCF782FC002800D0FEE7A6627D20C00028
:1055D000E062E0682843E06020680821084320601A
:1055E0002068284320600F20FDF7C8F870BD000038
:1055F000001002402C0100203F1F0000F3B581B0D5
:105600000E460198FAF7CCFDC7B23046FAF7C8FD4E
:10561000C5B2002409E0062021464143019800223A
:10562000005DFFF74DFD641CE4B2BC42F3D33C4681
:1056300008E021460620414300221046FFF740FDC6
:10564000641CE4B20A2CF4D3002408E006202146AE
:105650004143305D0122FFF733FD641CE4B2AC42EC
:10566000F4D308E029460620414301220020FFF739
:1056700027FD6D1CEDB20A2DF4D3FEBD0000000025
:1056800000000202020202020306061402020204E1
:1056900003030303020504040404020305050505CE
:1056A0000706060606060708070707070B09080886
:1056B0000808090A0909090906070A0A0A0A070C5B
:1056C0000B0B0B0B070D0C0C0C0C070E0D0D0D0D21
:1056D000070F0E0E0E0E070B0F0F0F0F11121206F3
:1056E00010101110101010101316161012121213A1
:1056F000131313130202021614141515151515159C
:105700001714141216161618171717171617181835
:105710001818000000000000000000000000000059
:105720000000000001010101010100000000000073
:105730000000000000000000000000000000000069
:105740000000000000000000000000000000000059
:105750000000000000000000000000000000000049
:105760000000000000000000000000000000000039
:105770000000000000000000000000000000000029
:105780000000000000000000000000000000000019
:105790000000000000000000000000000000000009
:1057A00000000000000000000000000000000000F9
:1057B00000000000000000000000000000000000E9
:1057C00000000000000000000000000000000000D9
:1057D0000000000000000000000700070000147F28
:1057E000147F1400246A2A2B120023130864620019
:1057F000364955225000000503000000001C2241DC
:1058000000000041221C000014083E081400080893
:105810003E080800005030000000006060200000DA
:1058200000606000000000606000000000000000F8
:1058300000003E5149453E0004427F400000426165
:10584000514946002141454B31001814127F100088
:105850002745454539003C4A494930000171090551
:105860000300364949493600064949493E00003699
:1058700036000000005636000000081422410000E7
:1058800014141414140041221408000002015109D8
:105890000600324979413E007E1111117E007F4998
:1058A000494936003E41414122007F4141221C00CE
:1058B0007F49494949007F09090901003E41494999
:1058C00072007F0808087F0000417F4100002040EF
:1058D000413F01007F08142241007F4040404000CA
:1058E0007F020C027F007F0408107F003E4141418F
:1058F0003E007F09090906003E4151215E007F09F3
:105900001929460046494949310001017F0101003A
:105910003F4040403F001F2040201F003F40384094
:105920003F00631408146300070870080700615102
:1059300049454300007F4141000002040810200057
:105940000041417F00000402010204004040404049
:1059500040280001020400002054545478007F487D
:1059600044443800384444442000384444487F00CC
:10597000385454541800087F010102000C5252524E
:105980003E007F080404780000447D400000202091
:10599000443D00007F102844000000007F402000AC
:1059A0007C04180478007C080404780038444444DB
:1059B00038007C1414140800081414187C007C08A7
:1059C00004040800485454542000043F444020007C
:1059D0003C4040207C001C2040201C003C403040CB
:1059E0003C004428102844000C5050503C004464B3
:1059F000544C44001F001F111F001F001D151700ED
:105A00001F0017151D00380408100E002A2A7F2ACF
:105A10002A007C1211127C007F49494931007F49DC
:105A2000494936007F0101010300603E213F6000CB
:105A30007F494949410077087F0877002249494951
:105A400036007F2010087F007C2012097C007F0830
:105A500014224100403E01017F007F020C027F00C2
:105A60007F0808087F003E4141413E007F0101015F
:105A70007F007C555455440038555455180020106B
:105A80000804020002040810200030180C0603006D
:105A9000060C1830600008492A1C0800081C2A4916
:105AA000080010207F20100004027F020400080874
:105AB0006B0808002222272222007810207B030096
:105AC0005D3614365D0000070507000030484803C6
:105AD0000300080F080F08081414F414141408F82D
